:020000040800F2
:1000000000500020E1180008151900081519000813
:10001000151900081519000815190008000000003E
:10002000000000000000000000000000151900089A
:10003000151900080000000015190008151900081E
:1000400015190008151900081519000815190008D8
:1000500015190008151900081519000815190008C8
:1000600015190008151900081519000815190008B8
:1000700015190008151900081519000815190008A8
:100080001519000815190008151900089508000829
:1000900099080008151900089108000815190008AA
:1000A0001519000815190008151900081519000878
:1000B0001519000815190008151900081519000868
:1000C0001519000815190008151900081519000858
:1000D0001519000815190008151900081519000848
:1000E000151900081519000815190008000000006E
:1000F0000000000000000000000000000000000000
:1001000000000000000000005FF808F110B5054C89
:10011000237833B9044B13B10448AFF300800123B3
:10012000237010BD6C010020000000006450000826
:100130000C4B43B10C4810B50C49AFF300800C4890
:10014000036823B910BD0A48036833B97047094BE7
:10015000002BF7D0BDE810401847064B002BF5D018
:10016000184700BF00000000645000087001002024
:100170006801002000000000154B002B08BF134B46
:100180009D46A3F5803A00218B460F461348144A3A
:10019000121A03F0C6FA0F4B002B00D098470E4BF3
:1001A000002B00D098470020002104000D000D48CE
:1001B000002802D00C4801F0A0F903F065FA2000F5
:1001C000290001F059F901F095F900BF000008007D
:1001D00000500020000000006B1400086C0100209B
:1001E000740A0020FB140008000000000368184790
:1001F00008B10B680360704770470000F8B5094FFD
:10020000094D0A4E074802F023FE50B12C783846BB
:10021000E4B2631CDBB22B7002F0B4FDC0B2305507
:10022000F0E7F8BDE4010020ED0200201C030020EF
:1002300038B504460D4603F03FF82946204601F044
:1002400078F8BDE8384003F061B800005523F0B5F8
:1002500087B08DF804304E238DF8053045238DF896
:10026000063052238DF8073000238DF808303A23EA
:100270008DF809303E4B1B5CDBB2A22B3ED00BD875
:10028000102B0DD0122B31D0FF238DF80A30022312
:1002900007218DF808300EE0F02B03D0F12BF3D1BD
:1002A000062108E08DF80A300D238DF80B3003236A
:1002B00008218DF8083000231F461D462D4A2E4880
:1002C0002E4E1370DCB28C4203F1010345DA06AF07
:1002D0003C4414F814EC04788EEA0505E4B2671C7B
:1002E000FFB2077006F804E00127EBE724488DF819
:1002F0000A3002F087FC8DF80B00D8E7214C8DF80E
:100300000A302378DB071DD45A224FF47A739DF903
:100310000B101D480029DBBF89185943594391FB35
:10032000F2F1CABF91FBF2F10C39243949B2FFF75F
:100330007FFF164802F096FE154B1860237843F0B5
:10034000010323700D238DF80B300A238DF80C3038
:10035000042309218DF80830ADE707B11570037843
:100360001278DBB2591CC9B20170F25407B0F0BD6B
:100370001C0300200803002005030020380400208F
:10038000A0020020090300201C0400200C03002010
:1003900034040020F8B5394E07463446384D3378DA
:1003A000BB4269D02B78062B64D8DFE803F0040D3C
:1003B000151D252D44002378324ADBB2D35C552B22
:1003C00034D101232B7031E023782E4ADBB2D35C89
:1003D0004E2B48D10223F5E723782A4ADBB2D35CBF
:1003E000452B40D10323EDE72378264ADBB2D35CCB
:1003F000522B38D10423E5E72378224ADBB2D25CC2
:10040000214B1A700523DDE723781E4ADBB2D35C4B
:100410003A2B28D123781D4A0133137006232B7001
:10042000194B1B4A1B7883F0360313702378013372
:10043000DBB22370B3E7144A12491378013BDBB2F5
:100440001370134A2BB12378DBB2CB5C11784B408D
:10045000EBE723781278DBB2CB5C9A4203D10B4BEB
:100460001878FFF7F3FE00232B702378013BDBB2F3
:100470002370DBE70023A5E70020F8BDEC02002095
:10048000070300201C0300200A03002006030020AD
:1004900008030020C36810B504460BB19B68984759
:1004A000204610BDC36810B504460BB19B68984741
:1004B000204610BD70B5064604460B4B00F1B8054A
:1004C00046F8983BB54204D0103D2846FFF7EAFFB6
:1004D000F8E704F13800FFF7DDFF04F12800FFF72B
:1004E000D9FF204670BD00BF904E000810B50446ED
:1004F000FFF7E0FF2046BC2102F036FF204610BD8A
:1005000010B50446024B0360FFF7D4FF204610BD30
:10051000784E00082DE9F04F00244F4D85B04F482C
:1005200002F074FD2B784E4EDFF85CB164F30003EB
:100530004FF4E1314B4834702B708BF8004002F0DF
:1005400073FC494B22460093484B69464548039348
:1005500002F014FD6846FFF7A5FF02F0ADFE14217E
:10056000434800F0E1FE02F0D1FE40F6C4114048DD
:10057000FFF75EFE4FF4AF7002F0F1FE4FF4FA7138
:100580003B48FFF755FE4FF4AF7002F0E8FE40F233
:10059000DC513748FFF74CFE2746DFF8C0A0DFF8F4
:1005A000EC80504602F05EFD001B64281DD95046C9
:1005B0004FF0010902F056FDB8F9003009FA07F9C9
:1005C0000133044629F0150904D13A2229492A4861
:1005D00002F04EFEB9F1000F3AD0D8F80C30D8F83E
:1005E000042001371A6007F01F07244B1978244BA9
:1005F0001A78914202D01878FFF7CCFE32789BF837
:1006000000309A420DD0174802F033FC48B13378DD
:100610001448DBB25A1CD2B232701A4AD15C02F0D2
:10062000C0FB2B78DB07BCD5504602F01BFDDFF882
:100630006090D9F80030C01AFA28B2D9504602F0BA
:1006400011FD2B78C9F800006FF300032B70A8E7A9
:10065000D8F81030C3E700BF090300200C030020C6
:1006600004030020E4010020FD0100086C4600089E
:100670001C04002078460008D7460008EC02002041
:10068000ED0200203804002005030020D0010020E6
:100690003404002010B50446FFF732FF2046BC2189
:1006A00002F062FE204610BD30B514258FB02B4CF1
:1006B00002F002FE08212A4800F0CAFD02F026FEE0
:1006C0002A460021204603F02CF82046254C2D21F7
:1006D00002F031FD2A460021234D204603F021F887
:1006E00020461D2102F027FD204C1C21284602F047
:1006F000E7FA28461E4D22461E4900F0F9FE4FF447
:1007000016530A220921284602F032FB22461A49D2
:10071000284600F0EDFE4FF0FF330C930B930A9345
:100720000993089307930693059304930393029305
:1007300001930723114D0093052206230421284627
:1007400002F0F6F922460E49284600F0D1FE0D4887
:100750000FB0BDE8304002F09BBC00BFD0010020CC
:100760001C040020F002002088010020EC00002082
:10077000E4010020652C000801050008A00200200B
:10078000F92A00080C0300203A4970B54B693A4C2D
:10079000DB0721602FD58A68384B384813401D1A73
:1007A0008A68374B684203EA0203354A68419E1A59
:1007B0008D68344B724203EA0503324D7241C5EB3A
:1007C000030CDCF1000343EB0C0308B101258D6041
:1007D0001AB128494FF480758D601BB125494FF43B
:1007E00080358D6008B902B92BB1274B274A1B68A9
:1007F0001068012198472368DA685B69920707D07F
:100800009E0705D5204B214A1B6810680021984798
:10081000236899695A698D075B6909D5900507D5E1
:10082000190405D5184B194A1B681068052198470B
:1008300023689E695D69C6F38006C5F380255B6900
:1008400046B13DB11A0405D50F4B104A1B6810681C
:100850000721984723685B6956B14DB11B0407D542
:10086000BDE87040084B094A1B6810680221184710
:1008700070BD00BF00640040380500200300000484
:100880000003000800000310780500207C0500200C
:10089000FFF77ABFFFF778BFFFF776BF10B50C4CB4
:1008A000A268A4681346B4F1006F0CD1131F094A63
:1008B00053F8044F42F8044F074CA242F8D1044ABF
:1008C0004FF000539360103043F8201010BD00BF6C
:1008D00000ED00E0FCFFFF1FE8000020431C10B506
:1008E000044604D106480749262202F0C1FC2046EE
:1008F000002100F0ABFA04F00F040120A04010BD6D
:10090000DC460008AC48000870B504464B1C0E4697
:10091000218010D0C1F3031000F04EFA0546304696
:10092000FFF7DCFF05F10803A36005F110031435A0
:100930006060E360256170BDB0F9000000F026BB87
:1009400038B5B0F90030054601330C4604D10848EB
:100950000849492202F08CFC012CB5F9000008BFBF
:100960002146BDE8384018BF002100F06FBA00BF33
:10097000D7460008AC4800082DE9F04107468846F4
:10098000144E4C2404FB00640025043445451ED05D
:100990004C237B430121F35801FA05F21A4213D08C
:1009A0000D4A236B506901FA03F30342D4F818E0AF
:1009B0000AD05361206838B1DEF808201342074B93
:1009C00008BF02211B68984701350434DEE7BDE803
:1009D000F08100BF80050020000401409407002042
:1009E00000200121FFF7C8BF01200146FFF7C4BF67
:1009F00002200121FFF7C0BF03200121FFF7BCBF88
:100A000004200121FFF7B8BF05200146FFF7B4BF5E
:100A100006200146FFF7B0BF2DE9F74F9B464B1C60
:100A200081460D46019266D001F00F0808F1FF33B0
:100A3000C1F303100E2B09D8DFE803F00C101418D3
:100A40001C1C1C1C1C202020202020002C4F0024BB
:100A5000062616E02B4F0124072612E02A4F022417
:100A600008260EE0294F032409260AE0284F042413
:100A70000A2606E0274F0524172602E0264F062403
:100A8000282600F099F94FFA86FA009007212846A7
:100A900000F0DCF950463946FFF700FF06F01F0171
:100AA000012202FA01F01D494FEA5A1341F82300CE
:100AB0001B4B89F8006053F828604C2363431949A5
:100AC000A9F80C5002FA06F5CA5800202A43C9F8C2
:100AD0000440C9F80800CA50132303FB0464009AB9
:100AE00001EB8403DA61C3F804B0C3F83480019ADF
:100AF0000D4B1A6000E0084603B0BDE8F08F00BF60
:100B0000E1090008E9090008F1090008F9090008ED
:100B1000010A0008090A0008110A000800E100E0C3
:100B2000F44800088005002094070020F8B5054629
:100B300044688089164A00F00F03C0F3031000F5E3
:100B400080100126423006FA03F1800252F8237029
:100B500000F0E8FF4C2161430E4ABE405358B5F9FE
:100B60000C0023EA0606132303FB047356500024EB
:100B700002EB83014C60991D0C3302EB810102EB07
:100B800083034C605C60214600F054FAAC60F8BD11
:100B9000F448000880050020F8B52C4B2C4C5E6A08
:100BA0001A692360D20712D5DA68D7070FD56FF01C
:100BB00001021A61274B1A6801321A601A68B3B22F
:100BC00003EB0243244A1360244B01221A701F4B8B
:100BD0001A6995071FD5DA6890071CD56FF00202D5
:100BE0001F4D1A612B889BB233B1288880B201F067
:100BF000EFFE00232B800EE01A4F3B684BB14FF6FF
:100C0000FF70B6B201F0E4FE2E803B68013B3B6012
:100C100001E002F027FB23681A69510714D5DA684E
:100C2000520711D56FF004020F4D1A615C6A2B68F0
:100C3000E31AB3F57A7F07D300F080FE044B04F586
:100C40007A721B689A632C60F8BD00BF00080040F0
:100C5000300A0020C4090020B80900206C0A0020D6
:100C6000BC090020C809002098070020274B37B591
:100C7000DA69274C42F00402DA61DA69002502F0F1
:100C800004020192019A1A6942F004021A611A6977
:100C900022F004021A6101F0D3FD1E4B1E4A2360AC
:100CA0004FF6FF73E3601D4B20461B682561B3FBC5
:100CB000F2F3013B6360A56001F0E0FB29462046AA
:100CC00001F0ACFC2046042101F0A8FC2268144B82
:100CD000516A1E2019601B68124903F57A739363E9
:100CE000FFF7DCFD104B4FF080421A60236820466E
:100CF000DA6842F00102DA60DA6842F00402DA608F
:100D000001F079FB284603B030BD00BF001002405F
:100D1000300A00200008004040420F00F40000208C
:100D200098070020990B000800E100E008B502F0E8
:100D3000C3FA962002F013FB962002F010FBF8E7AE
:100D400030B505460C46A1B002F0B6FA2946684611
:100D5000224602F049FD051E03DC02F0D7FA21B05D
:100D600030BD094B1B6823B908480221032200F05B
:100D70006DFC00241DF804100448013400F09AFDB5
:100D8000AC42F7D1E9E700BFA0090020E409002048
:100D90000FB407B504A951F8040B0191FFF7D0FF78
:100DA00003B05DF804EB04B0704708B501F048FDEE
:100DB000BDE8084000F0B0BD1FB5032833D8DFE818
:100DC00000F0020E1A261B4B1B489A6942F00402DF
:100DD0009A619B6903F004030393039B27E0154B7F
:100DE00016489A6942F008029A619B6903F0080369
:100DF0000093009B1BE00F4B11489A6942F01002D0
:100E00009A619B6903F010030193019B0FE0094B6A
:100E10000C489A6942F020029A619B6903F0200312
:100E20000293029B03E0084802F034FA002005B068
:100E30005DF804FB0010024000080140000C014076
:100E40000010014000140140344900082DE9F0432E
:100E5000431C87B005460C4604D1474847495622F3
:100E600002F006FAC5F30310FFF7A6FF444B04F0A7
:100E70000F079A69C4F3021642F001029A619B6956
:100E8000C4F3C31903F00103ACB2019304F00F08DB
:100E9000019BB9F1000F44D009F1FF31092940D875
:100EA000DFE801F0050A0F141920272E3338354AE0
:100EB000536843F0010333E0324A536843F00203BE
:100EC0002EE0304A536843F0040329E02D4A53686A
:100ED00043F0080324E02B4A536823F0300343F027
:100EE00010031DE0274A536823F0C00343F040037A
:100EF00016E0244A536823F4406343F400630FE090
:100F0000204A536843F440730AE01E4A536843F48E
:100F1000406305E01B4A536823F4C04343F4804315
:100F20005360012303FA08F30293174B02A953F805
:100F30002730049603930323059300F02DFDA4F1BD
:100F40000D03012B07D80F4A536823F0E06343F0E9
:100F50008063536009E00F2D07D10A4A536823F0DC
:100F6000E06343F00073536002E0133C012CF4D9BA
:100F700007B0BDE8F08300BFDC4600085549000813
:100F80000010024000000140AC490008F8B5431CC5
:100F900007460D4604D125482549A42202F068F9E8
:100FA000C7F30310FFF708FFBCB204F00F06072ECB
:100FB0008DBF04F00703B30002469B0088BF021DEB
:100FC000002D31D0022D02D9032D21D0F8BD146897
:100FD0000321994021420BD11468082199402143F3
:100FE00011601168042404FA03F321EA0303136077
:100FF000012D15BF0123C368C26805FA06F115BFAC
:10100000B340194322EA0303C16018BFC360F8BDAF
:10101000106805FA03F101421FBF1168042000FAAD
:1010200003F30B4318BF1360F8BD00BFDC46000894
:10103000554900082DE9F04184B20646C0F303107B
:101040000F46FFF7B9FE04F00F08B8F1070F8BBF8A
:1010500004F007044FEA8804A400026888BF4268CD
:101060004FF0030303FA04F394BF0546051D1A402D
:1010700012D129680823A3400B4016D02968042305
:10108000A3400B4210D1C268012303FA08F31342B4
:1010900014BF0123022308E02A680423A34013425B
:1010A0000CBF0023032300E0134607F00F01304676
:1010B000BDE8F04141EA0311FFF7C8BE30B5026850
:1010C000254B89B005460C4608461A60002103F0FE
:1010D00089F940B920464FF07E5103F0A1F918B1CB
:1010E0004FF07E5400E00024E86802F085FF2146BE
:1010F00002F0DAFF03F09EF960230193AB682861E8
:10110000B0FBF3F000230393049305930693079336
:101110002B7D0290013B032B1CD8DFE803F0080273
:101120000406042404E0082402E00C2400E0002467
:10113000094801A9224601F001FA10B1074802F05E
:10114000A9F86B7D0448214613B101F09FFA01E034
:1011500001F07AFA09B030BD9C070020E049000890
:1011600038B5C46894B1006902F046FF05462046D0
:1011700002F042FF0146284603F04AF84FF07E5144
:10118000044603F04DF918B9204638BD002038BD9B
:101190004FF07E5038BD00002DE9F041D0F80080BE
:1011A000264C05460E46C4F80080FFF7D9FF41F2F1
:1011B0001113D8F82020074613405BB940F244438E
:1011C000D8F8202013402BB9D8F8003023F00103C1
:1011D000C8F80030B6F5803FACBF4FF4FA73012376
:1011E000AB60174B174A1B68B3FBF2F2AB68534373
:1011F000013BB3F5803F636002D3134802F04AF825
:10120000AA68731EB3FBF2F3B3F5803FE36002D329
:101210000E4802F03FF8002308482361A36001F064
:1012200047F9EE6028463946FFF748FF2268136801
:1012300043F001031360BDE8F08100BF9C0700206C
:10124000F400002040420F00F7490008134A00084C
:101250007FB504460E4608462C4901F0ABFF2060DE
:10126000013004D12A482B492D2202F001F83046E2
:10127000264901F0BBFF431C054604D126482549F9
:10128000312201F0F5FFC5F3C4232375234A2368F7
:10129000C5F30045934265750AD1214B9A6942F422
:1012A00000629A619B6903F400630193019B1BE058
:1012B000B3F1804F0BD103F50433DA6942F0010238
:1012C000DA61DB6903F001030293029B0CE0154A2B
:1012D000934209D1124BDA6942F00202DA61DB690A
:1012E00003F002030393039B3046084901F026FFF5
:1012F0000023E36023610123A680A360204644F617
:101300002061FFF749FF04B070BD00BF38470008F7
:101310002C4A0008444A00089D4A0008002C01405D
:1013200000100240000400404FF47A735943FFF765
:1013300033BF38B50446084602F062FE0546E06851
:1013400002F05AFE0146284602F062FF014620469E
:10135000BDE83840FFF7B2BE08B5084B1B685BB963
:1013600007480221032200F071F905484FF4165195
:10137000BDE8084000F00EBA08BD00BFA00900207B
:10138000E409002002284FF0000309DD0749C21ECE
:1013900051F8220041F8223020B103685B681847F9
:1013A000184670474FF0FF30704700BFDC07002041
:1013B000022870B50C4615460FDC0E4B1B680BB9A6
:1013C000FFF7CAFF6619B44205D00B4814F8011B99
:1013D00000F070FAF7E7284670BD084B033853F861
:1013E000200020B1BDE8704003681B6818474FF02B
:1013F000FF3070BDA0090020E4090020DC070020B8
:10140000022810B50C460ADC0B4B1B680BB9FFF722
:10141000A3FF0A4800F02EFA2070012010BD084BEF
:10142000033853F8200020B1BDE8104003689B68E2
:1014300018474FF0FF3010BDA0090020E40900203C
:10144000DC070020022807DD064B033853F8200094
:1014500020B103681B691847002070474FF0FF3028
:10146000704700BFDC070020704708B5FFF79DFC00
:10147000FFF7FAFF08BD704708B5FFF7FCFFBDE8AE
:101480000840FFF747B800000C4A10B5136818442D
:10149000EFF30881884205D3094B0C221A604FF004
:1014A000FF3010BD0749096821B1074C2468214469
:1014B0008842F1D21060184610BD00BFF000002035
:1014C000700A0020D8070020DC0800200546074CE1
:1014D00008B52368986801F0FBFF2368D86801F01D
:1014E000F7FF0DB1FFF722FCFEE700BFF800002078
:1014F0000120704708B5FFF7E9FF012070477047EA
:10150000704708B5FFF7FBFF08BD08B5FFF7F8FF08
:1015100008BD000010B502F0DBF8044610B902481F
:1015200001F0B8FE204610BD654B000808B102F07E
:10153000D7B870474309064900F01F0001228240D6
:10154000203341F82320BFF34F8FBFF36F8F7047D5
:1015500000E100E00346426810B517491C6892019B
:1015600088188C509A68D9684260024642F8081F71
:101570001969516059699160196A00F1100291600E
:101580000021C1848184C1858185B3F91A1001319C
:1015900001D1082305E0B3F9183001330CBF04234F
:1015A0000C23536001F01FF920B1BDE8104003483F
:1015B00001F070BE10BD00BFE0080020064C00081E
:1015C0001A4BF7B5074653F820001E4600282BD0CB
:1015D000174CBD0163591A6852060AD5DB685906D3
:1015E00007D5144B01211B68984763596FF04002DF
:1015F0001A6063591A6892060DD5DB6898060AD5F9
:101600000C4B56F827001B6800219847084B6FF0D9
:1016100020025B591A6063591A68110704D55A6988
:10162000D20744BF5B68019303B0F0BDA40900205A
:10163000E0080020B00900200020FFF7C1BF012012
:10164000FFF7BEBF0220FFF7BBBF0000F0B50446A6
:1016500085B008460E464549154601F0ABFD4449A4
:101660000746284601F0A6FD0146384601F084FDF4
:101670002060013004D13F483F49642201F0F8FD69
:1016800023683E4A934213D13D4BDA6842F48042CC
:10169000DA60DA6822F48042DA609A6942F48042C1
:1016A0009A619B6903F480430193019B00232CE022
:1016B000344A934213D1324B1A6942F400321A6110
:1016C0001A6922F400321A61DA6942F40032DA61EE
:1016D000DB6903F400330293029B012315E02A4ADD
:1016E000934213D1264B1A6942F480221A611A6977
:1016F00022F480221A61DA6942F48022DA61DB691D
:1017000003F480230393039B02236360304617494D
:1017100001F014FD2846164901F010FD721C03D09B
:1017200030460121FFF732FC6B1C03D02846012113
:10173000FFF72CFC4FF41653A3600023E3602361F2
:1017400063612362268365832046FFF703FF2268D7
:101750000C4B9A4207D10D4B01221A600C482146CE
:101760004C2201F0D3FF05B0F0BD00BF6448000873
:10177000F04600081E4C00083A4C000800380140B2
:10178000001002400044004000480040A009002032
:10179000E40900208160FFF7DDBE0000034B196003
:1017A0004168034B43F82120704700BFB009002077
:1017B000A409002038B509C80D462149884202D144
:1017C000204925240CE02049884202D11F492624C3
:1017D00006E01F49884219BF00210C461D492724F5
:1017E0001D489B01AAB1C258D36815B943F0200324
:1017F00001E043F0400365B2D3602846FFF74EF89E
:1018000004F007040123154A6D09A34042F825306E
:1018100038BDC358DA6835B922F02002DA60DB68D7
:101820001A0606D538BD22F04002DA60DB689B0656
:1018300004D42046BDE83840FFF77CBE38BD00BF69
:101840000038014039160008004400403F160008E7
:101850000048004045160008E008002000E100E0D4
:101860004368034A9B01D3581868C0F3401070477F
:10187000E008002038B5054644682846FFF7F0FF29
:101880000028FAD0054AA301D358E968586809B975
:10189000C0B238BDC0F3080038BD00BFE00800206A
:1018A0004368034A9B01D3581868C0F3C0107047BF
:1018B000E008002070B506460C4645683046FFF744
:1018C000EFFF0028FAD0054AF168AB01D35809B9F7
:1018D000E4B201E0C4F308045C6070BDE0080020DD
:1018E00008488546002103E0074B5B58435004310C
:1018F0000648074B42189A42F6D301F02FF8FEF73C
:101900003BFCFEE70050002070500008EC00002077
:101910006C010020FEE77047074A08B513680320F2
:1019200043F01003136000F025F80F20FFF79EF935
:10193000FFF7F1FF002008BD00200240024A1368B3
:1019400001331360704700BFB4090020014B1868D1
:10195000704700BFB409002013B50190FFF7F6FFF0
:101960000446FFF7F3FF019B001B9842F9D302B036
:1019700010BD0000074A00F00700D36823F4E063BD
:101980001B041B0C43F0BF6343F4003343EA002302
:10199000D360704700ED00E00023F7B51D4601223B
:1019A0000C68AA401440944240F0AC804A68122A65
:1019B0002BD00ED8022A25D004D84AB3012A30D120
:1019C000CB682EE0032A1BD0112A2AD1CB6804331E
:1019D00027E04F4EB2421BD006D8A6F58016B24281
:1019E00016D006F5803608E04A4EB24210D006F511
:1019F0008036B2420CD0A6F58016B24211D107E073
:101A000000230EE0CB6808330BE0CB680C3308E012
:101A10008B682BB1012B0CBF04614461082300E0EB
:101A20000423FF2C97BF8646A5F108070668AF0080
:101A300084BF4668BF004FF00F0202FA07FC26EA97
:101A40000C0603FA07F746EA070688BF00F1040E02
:101A5000CEF800604F68FE0054D52F4E05F0030C01
:101A6000D6F818E04FEA8C0C4EF0010EC6F818E0DC
:101A7000B66902FA0CF206F001060196019E25F005
:101A8000030606F1804606F58036D6F808E02EEA11
:101A9000020E224A90420ED002F5806290420CD093
:101AA00002F5806290420AD002F5806290420CBF3B
:101AB0000322042204E0002202E0012200E00222CC
:101AC00002FA0CF242EA0E02B260154A17F4803FA5
:101AD000166814BF2643A6431660566817F4003FE5
:101AE00014BF2643A6435660966817F4801F14BFA0
:101AF0002643A6439660D668BF024CBF344326EA0D
:101B00000404D4600135102D7FF449AF03B0F0BD5B
:101B100000002110000031100010024000080140B8
:101B200000040140F0B5002531FA05F35DD0012431
:101B3000AC400C4057D0FF2C98BF86466FEA040497
:101B40008BBFA5F1080703684368AF0088BFBF00DB
:101B50004FF00F0606FA07F223EA02034FF00402E1
:101B600002FA07F288BF00F1040E1343CEF80030EA
:101B7000C36825F00302234002F18042C36002F5EE
:101B8000803205F003079368BF00BE4006EA030EEB
:101B9000164B98420ED003F5806398420CD003F5A3
:101BA000806398420AD003F5806398420CBF0323F8
:101BB000042304E0002302E0012300E00223BB40F1
:101BC0009E4510D1936823EA0606094B96601A6871
:101BD00022401A605A6822405A609A6822409A60ED
:101BE000DA681440DC6001359EE7F0BD0008014072
:101BF000000401400368F7B50546D80703D42B68F5
:101C0000990773D4F0E0B74C636803F00C03042B1E
:101C100007D0636803F00C03082B16D16368DA035E
:101C200013D54FF4003393FAA3F2226893FAA3F387
:101C3000B3FA83F303F01F0322FA03F3DB07DED5C5
:101C40006B68002BDBD1012030E26B68B3F5803F7D
:101C500013D05BB9236823F480332360236823F413
:101C600080232360FFF772FE06462FE0B3F5A02F16
:101C7000236806D143F480232360236843F4803330
:101C800005E023F480332360236823F4802323605A
:101C9000FFF75CFE06464FF4003393FAA3F2226886
:101CA00093FAA3F3B3FA83F303F01F0322FA03F3C7
:101CB000DF07A4D4FFF74AFE801B6428EBD903207A
:101CC000F4E1FFF743FE801B6428F8D84FF400339B
:101CD00093FAA3F2226893FAA3F3B3FA83F303F01F
:101CE0001F0322FA03F3D807EBD488E77D4C63681F
:101CF00013F00C0F07D0636803F00C03082B20D1FE
:101D00006368D9031DD4022393FAA3F2226893FADD
:101D1000A3F3B3FA83F303F01F0322FA03F3DA0702
:101D200002D52B69012B8ED12268F82191FAA1F1FD
:101D3000B1FA81F16B6922F0F8028B401343236002
:101D400052E02A69012372B393FAA3F2B2FA82F243
:101D5000920002F1844202F584021360FFF7F6FD5F
:101D60000646022393FAA3F25E48226893FAA3F38D
:101D7000B3FA83F303F01F0322FA03F3DB0705D45E
:101D8000FFF7E4FD801B0228EBD998E70268F821F1
:101D900091FAA1F1B1FA81F16B6922F0F8028B405E
:101DA0001343036020E093FAA3F3B3FA83F39B0099
:101DB00003F1844303F584031A60FFF7C7FD064669
:101DC000022393FAA3F2226893FAA3F3B3FA83F3FC
:101DD00003F01F0322FA03F3DF0705D5FFF7B6FD73
:101DE000801B0228ECD96AE72B681C0746D5AA6934
:101DF0003C4C01233C4912B393FAA3F2B2FA82F2AB
:101E000041F82230FFF7A2FD0646022393FAA3F21F
:101E100093FAA3F2626A93FAA3F3B3FA83F303F09B
:101E20001F0322FA03F3D80705D4FFF78FFD801BA9
:101E30000228EAD943E70120FFF78EFD1EE093FA5E
:101E4000A3F3B3FA83F341F82320FFF77FFD06469F
:101E5000022393FAA3F293FAA3F2626A93FAA3F32A
:101E6000B3FA83F303F01F0322FA03F3D90705D56E
:101E7000FFF76CFD801B0228EAD920E72B685A0780
:101E800004D4EA69002A40F08680DEE0154C174A47
:101E9000E36943F08053E361E36903F08053019306
:101EA000019B136843F480731360FFF74FFD0646F0
:101EB0000E4B1B68DB0505D4FFF748FD801B64282B
:101EC000F6D9FCE6EB68012B18D08BB9236A23F016
:101ED00001032362236A23F004032362FFF736FD24
:101EE000064640E00010024080044242007000407C
:101EF000052B236A06D143F004032362236A43F0CF
:101F0000010305E023F001032362236A23F00403A5
:101F10002362FFF71BFD0646022393FAA3F293FA0E
:101F2000A3F2B2FA82F242F0400252099A420CBF86
:101F3000226A626A93FAA3F3B3FA83F303F01F03EE
:101F4000DA40D7079DD4FFF701FD41F28833801BAB
:101F50009842E1D9B3E6FFF7F9FC41F28833801BE0
:101F600098423FF6ACAE022393FAA3F293FAA3F29F
:101F7000B2FA82F242F0400252099A420CBF226A3F
:101F8000626A93FAA3F3B3FA83F303F01F03DA4010
:101F9000D007E0D475E7464C636803F00C03082BC8
:101FA0003FF451AE022A4FF080735CD193FAA3F351
:101FB000B3FA83F39B0003F1844303F58403002207
:101FC0001A60FFF7C3FC06464FF0007393FAA3F2C2
:101FD000374F226893FAA3F3B3FA83F303F01F0396
:101FE00022FA03F3D90732D42E6AB6F5803F01BF37
:101FF000796821F40030A968014308BF79606368FB
:102000006A6A23F474133243134363604FF080739E
:1020100093FAA3F3B3FA83F39B0003F1844303F52C
:10202000840301221A60FFF791FC05464FF000730C
:1020300093FAA3F2226893FAA3F3B3FA83F303F0BB
:102040001F0322FA03F3DA0707D500202EE0FFF77B
:102050007DFC801B0228B7D931E6FFF777FC401BD7
:102060000228E3D92BE693FAA3F3B3FA83F39B0098
:1020700003F1844303F5840300221A60FFF766FC32
:1020800005464FF0007393FAA3F2226893FAA3F384
:10209000B3FA83F303F01F0322FA03F3DB07D4D56B
:1020A000FFF754FC401B0228EBD908E603B0F0BD53
:1020B000001002401F4B70B503F110052E4686B08C
:1020C00002AC224618685968083303C2AB42144672
:1020D000F7D133881848ADF80430416801F00C039B
:1020E000082B23D14FF4701292FAA2F2B2FA82F2C4
:1020F00001F47013D34006AA134413F8102CCB0339
:1021000011D543684FF4003191FAA1F1B1FA81F190
:1021100003F40033CB4006A90B4413F8140C074B0F
:10212000B3FBF0F000E00648504300E0034806B07F
:1021300070BD00BF034D00080010024000127A007D
:1021400000093D00544AF8B51368064603F007033A
:1021500099420D460AD831688C0713D54F48436819
:1021600023F0F002B368134343600BE0136823F0DD
:1021700007030B431360136803F007038B42EAD095
:102180000120F8BDC80706D4434A136803F00703CB
:102190009D424DD356E07268404C012A02D14FF463
:1021A000003304E0022A0CBF4FF00073022393FABD
:1021B000A3F1216893FAA3F3B3FA83F303F01F03A7
:1021C00021FA03F3D907DBD5636823F003031A432D
:1021D0006260FFF7BBFB73680746012B0DD1636894
:1021E00003F00C03042BCFD0FFF7B0FB41F2883390
:1021F000C01B9842F3D90320F8BD022B13D16368AA
:1022000003F00C03082BBFD0FFF7A0FB41F288338B
:10221000C01B9842F3D9EEE7FFF798FB41F28833F1
:10222000C01B9842E7D8636813F00C0FF4D1ABE7FA
:10223000136823F007032B431360136803F00703AD
:10224000AB429DD13168154C11F0040F05D0636885
:1022500023F4E062F368134363600B0741BF6368D4
:10226000326923F4605343EAC20348BF6360FFF757
:1022700021FF6368F02292FAA2F2B2FA82F203F02E
:10228000F003D340064AD35CD840064B18600F20B9
:10229000FEF7ECFC0020F8BD0020024000100240D8
:1022A000154D0008F4000020084B4FF4E0625B6815
:1022B00092FAA2F2B2FA82F203F4E063D340044A43
:1022C000D35C044A1068D840704700BF0010024039
:1022D000254D0008F4000020084B4FF460525B6865
:1022E00092FAA2F2B2FA82F203F46053D340044AA3
:1022F000D35C044A1068D840704700BF0010024009
:10230000254D0008F4000020036A70B523F0010396
:102310000362036A426884690D6824F073042543EC
:1023200023F002048B6823430A4CA0420BD1CC68F3
:1023300023F0080323438E694C6922F4407234432E
:1023400023F00403224342604A68856142630362CA
:1023500070BD00BF002C0140036A30B523F48073C8
:102360000362036A4268C4690D6824F073042C4355
:102370008D6823F4007343EA05230C4DA8420ED167
:10238000CD6823F4006343EA05234D6922F44052EB
:1023900042EA05128D6923F4806342EA0512426025
:1023A0004A68C461C263036230BD00BF002C0140B3
:1023B000036A30B523F480530362036A4468C26938
:1023C0000D6822F4E64242EA05228D6823F40053A8
:1023D00043EA0533064DA84202BF4D6924F4804408
:1023E00044EA85144460C2614A680264036230BDF5
:1023F000002C014070470268022380F839301368CE
:1024000043F001031360012380F839300020704746
:1024100070470000184A036890420AD0B0F1804F1C
:1024200007D0A2F59432904203D002F58062904228
:1024300015D14A6823F0700313430F4A90420AD023
:10244000B0F1804F07D0A2F59432904203D002F54C
:102450008062904203D1CA6823F44073134303603F
:102460008B68C3620B688362034B984204BF0B699D
:102470000363012343617047002C014010B50446FB
:10248000A0B190F8393003F0FF021BB980F8382072
:10249000FFF7B0FF022384F839302068211DFFF7D1
:1024A000B9FF012384F83930002010BD012010BD90
:1024B00010B50446A0B190F8393003F0FF021BB903
:1024C00080F83820FFF7A4FF022384F83930206811
:1024D000211DFFF79FFF012384F83930002010BD34
:1024E000012010BD036A30B523F010030362036AB4
:1024F000426884690D6824F4E64444EA05248D6842
:1025000023F0200343EA05130B4DA8420ED1CD68FA
:1025100023F0800343EA05134D6922F4406242EA46
:1025200085028D6923F0400342EA850242604A68D1
:1025300084618263036230BD002C014038B590F89D
:1025400038300446012B0D464FF0020058D00123CD
:1025500084F8383084F839000C2A4BD8DFE802F0D0
:10256000074A4A4A174A4A4A294A4A4A39002068C9
:10257000FFF7CAFE23689A6942F008029A619A69D5
:1025800022F004029A6199692A690A430FE02068DF
:10259000FFF7A8FF236829699A6942F400629A61EB
:1025A0009A6922F480629A619A6942EA01229A61E8
:1025B00020E02068FFF7D0FE2368DA6942F00802C5
:1025C000DA61DA6922F00402DA61D9692A690A4318
:1025D0000FE02068FFF7ECFE23682969DA6942F40E
:1025E0000062DA61DA6922F48062DA61DA6942EA69
:1025F0000122DA610123002084F8393084F83800A0
:1026000038BD10B50123046A8B4024EA030303623A
:10261000036A8A401343036210BD000010B50446EC
:1026200001220068FFF7EDFF2368064A002093426D
:1026300002BF5A6C42F400425A641A6842F0010226
:102640001A6010BD002C014010B50446012200683C
:10265000FFF7D7FF2368064A0020934202BF5A6C57
:1026600042F400425A641A6842F001021A6010BD36
:10267000002C014010B50423046A8B4024EA0303B4
:102680000362036A8A401343036210BD10B5044617
:1026900004220068FFF7EEFF236800205A6C42F422
:1026A00000425A641A6842F001021A6010BD00002C
:1026B0002DE9F047056801692B69804623F44052F3
:1026C000C368192413432B618368EA68194343697B
:1026D000194322F4B05323F00C030B43EB606B69F6
:1026E00023F44072836913436B613D4B9D4231D1AA
:1026F000FFF7F2FD6043D8F804604FF06409B600BC
:10270000B0FBF6F6FFF7E8FD6043D8F80430B6FBFF
:10271000F9F69B00B0FBF3F7FFF7DEFD6043D8F856
:10272000043036019B00B0FBF3F0B0FBF9F009FB7D
:1027300010731B013233B3FBF9F303F0F007FFF71B
:10274000CBFD6043D8F804209200B0FBF2FAFFF70B
:10275000C3FD30E0FFF7A8FD6043D8F804604FF0F8
:102760006409B600B0FBF6F6FFF79EFD6043D8F8AB
:102770000430B6FBF9F69B00B0FBF3F7FFF794FDCE
:102780006043D8F8043036019B00B0FBF3F0B0FB97
:10279000F9F009FB10731B013233B3FBF9F303F0BB
:1027A000F007FFF781FD6043D8F804209200B0FBEA
:1027B000F2FAFFF779FD4443D8F804008000B4FB37
:1027C000F0F0B0FBF9F009FB10A212013232B2FBBB
:1027D000F9F202F00F02BB183344AB60BDE8F0879A
:1027E00000380140704710B5044630B390F83930D6
:1027F00003F0FF021BB980F83820FFF7F3FF2268CF
:10280000022384F83930D368204623F40053D36080
:10281000FFF74EFF236800201A6922F490421A61E4
:102820005A6922F02A025A61DA6842F40052DA60E8
:102830000123E06384F8393010BD012010BD000091
:10284000114A124B516801F00C01042901D00829EA
:1028500001D00F490EE051685068C1F38341C003B5
:1028600001F1020102D55068800301D5094800E05A
:1028700007484143196052680749C2F30312895C53
:102880001A68CA401A60704700100240F400002025
:1028900000127A0000093D00154D000830B50123F3
:1028A00091B0069310B94FF4803301E04FF4A023A8
:1028B00007934FF48033002402250E9306A84FF4AB
:1028C000E01308940D950F93FFF794F978B90F234F
:1028D000019303904FF480630590294601A8029567
:1028E0000493FFF72FFCB0FA80F0400900E0204687
:1028F00011B030BD30B5032391B0069301230A9384
:10290000102300240B9302254FF4601306A80794AC
:102910000D950E940F93FFF76DF978B90F2301937E
:1029200003904FF480630590294601A80295049313
:10293000FFF708FCB0FA80F0400900E0204611B033
:1029400030BD08B50120FFF7A9FF30B9FFF7A6FF9A
:1029500018B9FFF7CFFF00B9FEE708BD10B5174C57
:10296000236843F0010323606268154B13406360E2
:1029700023684FF0006223F0847323F480332360D4
:10298000236823F480232360636823F4FE036360D9
:102990004FF41F03A3600B4B9A600B4B0B4A1A605A
:1029A000FEF7BAFFFFF7CDFF236943F0040323616D
:1029B000236923F00403236110BD00BF001002400F
:1029C0000000FFF800ED00E0F400002000127A00A3
:1029D000044B054A13605863DA6842F00202DA6079
:1029E000704700BF00080040300A0020054B1868FF
:1029F00030B901221A60044A044B1A60FEF736B956
:102A0000704700BFC009002000080040300A0020C5
:102A10000B4B0C4A10B513600B4A1C4612680AB9DE
:102A2000FFF7E4FF094A002309491370636A086845
:102A30001278012A0ABF074B03EB0040186810BD4B
:102A400000080040300A0020C00900206C0A002065
:102A5000C4090020B809002038B50446FFF7D8FFA4
:102A6000144B201A5D6A0028ADB203DCBDE8384083
:102A700000F0F8BB104B114C021480B21A60208099
:102A80002288C5F57F4392B2FF339A4207DC208843
:102A9000284480B2FFF79CFF0023238038BD4FF607
:102AA000FF70FFF795FF208880B20130284480B284
:102AB000208038BD00080040C8090020BC09002063
:102AC000034B044A1360DA6822F00202DA607047AE
:102AD00000080040300A0020044B054A13601A69C0
:102AE000920744BF6FF002021A617047000800406D
:102AF000300A00207047704770B504460546064B03
:102B000000F14006036055F8040F08B1FEF70EFD12
:102B1000B542F8D1204670BD384D000810B50446C6
:102B2000FFF7EAFF2046FEF701FD204610BD00003A
:102B30002DE9F0410546A84688B0ADF80430BDF94E
:102B400038302F48ADF80630BDF93C300024ADF8E0
:102B50000830BDF940302860ADF80A30BDF9443086
:102B6000ADF80010ADF80C30BDF94830ADF80220DA
:102B7000ADF80E30BDF94C306C64ADF81030BDF9D5
:102B80005030ADF81230BDF95430ADF81430BDF905
:102B90005830ADF81630BDF95C30ADF81830BDF9DD
:102BA0006030ADF81A30BDF96430ADF81C30BDF9B5
:102BB0006830ADF81E303DF914707B1C0CD0142029
:102BC000FEF7A8FC06460021142200F0AAFD3046BC
:102BD000394600F096FA00E0002601371FBF0123B6
:102BE0006A6CA340134304F1010448F8046F18BF52
:102BF0006B64102CDFD1284608B0BDE8F08100BF1F
:102C0000384D000803682DE9F0419B680546984758
:102C10000124002755F8246004F1FF3896B1B6F975
:102C20000030013304D10C480C49482200F020FB4D
:102C3000B3681A6873681A4214BF0123002303FAA9
:102C400008F31F430134112CE4D12B682846DB68BC
:102C500098473846BDE8F081D7460008484D00083F
:102C60007047000010B50446074B40F8183BFDF7CD
:102C70005DFF04F13800FDF715FC04F12800FDF7B5
:102C800011FC204610BD00BF184E000810B50446C8
:102C9000FFF7E8FF2046FEF749FC204610BD000084
:102CA00038B504460D46FDF7FDFB2CB10DB9E560C6
:102CB00038BD024B2560E36038BD00BF6C4600089C
:102CC0002DE9F041054604460E46154B04F1180760
:102CD00045F8043B28460021142200F022FDDFF8CD
:102CE000488010223846002100F01BFD002363635A
:102CF000636404F128004146FFF7D2FF04F1380075
:102D00004146FFF7CDFF3146064A23463846FDF7D8
:102D100083FE2846314600F0F4F92046BDE8F081F4
:102D2000184E0008552D0008612C0008C36810B526
:102D300004462BB90548064940F2E71200F098FA1C
:102D4000E3682046BDE810401B681847204E000885
:102D5000254E0008012908B502D0022902D008BD7D
:102D6000283000E03830FFF7E1FF08BD70477047BA
:102D700010B5044600F098F8014B2046236010BDC2
:102D8000784E000838B5044603681B68984720460B
:102D900000F080F80546236820465B68984728467F
:102DA00038BD38B504460D4603681B689847294668
:102DB000204600F072F80546236820465B68984775
:102DC000284638BD70477047704710B588B1146801
:102DD00053680CB9DA070CD513F0010F4FEA6303FF
:102DE00018BFC258184418BF14592346BDE81040F4
:102DF000184710BD70B509014418D4F8A43001F18A
:102E0000980505442BB90648064940F2E71200F040
:102E10002FFAD4F8A4302846BDE870401B68184744
:102E2000204E0008254E000870B505460E460446A3
:102E300055F84C3B1B68984728463146FEF7AAFCDC
:102E40002368C4F8B8602046BDE870405B68184746
:102E500038B5054655F84C3B04461B68984728464C
:102E6000FEF7FEFC0546236820465B689847284627
:102E700038BD38B5054655F84C3B04461B689847A5
:102E80002846FEF70DFD0546236820465B689847F7
:102E9000284638BD4C30FEF7EDBC10B50C464C3022
:102EA000FEF708FD204610BD2DE9F3479046024687
:102EB00004469A462B4B002542F8083B009502AB8E
:102EC0000195894613E90300274B82E8030023613B
:102ED00048F207036361254BE561A46122626362E6
:102EE000BFF36F8FBFF34F8F04F14C0604F19807C7
:102EF0006563656484F8485084F849503046294633
:102F00004C2200F00EFCC4F8A450C4F8B450C4F82D
:102F1000B8A03846FDF7C6FA2FB1154BC4F8983063
:102F2000144BC4F8A43004F1A8052846FDF7BAFAFA
:102F30002DB10F4BC4F8A8300E4BC4F8B430424644
:102F400030464946FEF782FB3046D4F8B810FEF70B
:102F500021FC304608492246FEF720FC204602B0FC
:102F6000BDE8F087904E000801A090E8CB2D000846
:102F7000C52D00086C460008F52D00082DE9F0412C
:102F800007468846164657F84C3B05461B68984747
:102F900000F092F9D8F80C3034019834ABB12C44DD
:102FA0002046FDF77FFA64B1D8F80C301BB15B689E
:102FB000204641469847D8F80C2005EB0613C3F885
:102FC000A42038463146012211E005EB04084046B2
:102FD000FDF768FAB8F1000F06D00A4B0A4A2B51E8
:102FE00005EB0613C3F8A420384631460022FEF74D
:102FF000E1FB00F08BF92B682846BDE8F0415B68E7
:10300000184700BFC52D00086C46000810B50446DF
:1030100000F052F923682BB9E06800F01BF9012396
:1030200060602360BDE8104000F070B938B5054617
:1030300000F042F92C6824B1E86800F00BF96C68E4
:10304000041B00F063F9204638BD38B5054600F092
:1030500033F92846AC68FFF7E9FF044400F056F95D
:10306000204638BD08B5FFF7F0FF4FF47A7390FBA8
:10307000F3F008BD10B5044600F01EF9E06800F05A
:10308000E9F800236060A360BDE8104000F03EB99D
:10309000002310B5036043608360044600F0DEF84F
:1030A000E0602046FFF7E6FF204610BD38B5B0F9D6
:1030B0000030044601330D4604D1064806493A2241
:1030C00000F0D6F863680DB1E26800E02269136091
:1030D00038BD00BFD7460008484D000870B50E4601
:1030E00004461546FDF710FC013609D020460021A4
:1030F000FDF726FC20462946BDE87040FDF71CBCC4
:1031000070BD0022FFF7EABF70B50E4604461546B3
:10311000FDF7FAFB01360DD020462946FFF7C6FF22
:1031200020460121FDF70CFC2046BDE8704000213F
:10313000FDF702BC70BD0022FFF7E6BF10B50446E4
:10314000013001D110BD0C31B1F900305A1C0BD047
:10315000A342F8D120468968FDF778FE2046BDE8F5
:1031600010400021FDF712BF0248BDE8104000F0FA
:1031700091B800BFA04E0008884208B50AD0431C91
:1031800007D0013106D0044800F084F84FF0FF303A
:1031900008BD084608BD00BFB14E0008B1F90030B7
:1031A0005A1C05D0834201D1486870470C31F5E7BD
:1031B00018467047421C10B5044607D0FFF7EEFFD3
:1031C000431C044602D1024800F064F8204610BDBA
:1031D000C24E0008B1F900305A1C05D0834201D11B
:1031E000886870470C31F5E718467047421C10B5E7
:1031F000044607D0FFF7EEFF431C044602D1024805
:1032000000F048F8204610BDE24E0008036870B593
:10321000DB680446984763685A6823681AB99B6854
:10322000BDE8704018475B6815689847281A002861
:10323000636808DC5A68916859601B68002BEAD003
:1032400050689847E7E721685A68BDE870400B6905
:103250001068184703685B6818470000004870470B
:10326000144F00080148FFF7D1BF00BF144F0008FA
:1032700070B506460D46144600F01EF831462A4643
:1032800023460348FDF784FDBDE87040FDF74EBDC1
:103290001C4F00080FB407B504A951F8040B0191A5
:1032A000FDF74EFD0120FEF725F9EFF3108000F049
:1032B000010080F00100704738B5FFF7F6FF80F09D
:1032C0000100C5B272B60C4C23680BB90B4B1D70D4
:1032D0002368013304D10A480A493522FFF7C8FFA1
:1032E00023682BB125B9084806493922FFF7C0FFEA
:1032F00023680133236038BDD4090020D809002099
:103300004D4F0008734F0008B64F000810B50A4C27
:10331000236883B1FFF7C9FF20B1084808494A2252
:10332000FFF7A6FF2368013B236023681BB9054B09
:103330001B7803B962B610BDD4090020B64F00084F
:10334000734F0008D809002038B50446FFF760FB2A
:103350000546FFF75DFB401BA042FAD338BD4FF492
:103360007A735843FFF7F0BFFEF7E0B88A892DE97A
:10337000F041054610070C465AD44B68002B05DC7B
:103380000B6C002B02DC0020BDE8F081E66A002E09
:10339000F9D0002312F480522F682B6033D0606D77
:1033A000A3895A0705D56368C01A636B0BB1236CF8
:1033B000C01A00230246E66A216A2846B047431C29
:1033C000A38906D129681D294BD82B4ACA40D607A4
:1033D00047D5002262602269D904226004D5421CCC
:1033E00001D12B6803B96065616B2F600029CAD0D9
:1033F00004F14403994202D0284601F03FF800202E
:103400006063BDE8F081216A01232846B047411C72
:10341000C6D12B68002BC3D01D2B01D0162B01D198
:103420002F60B0E7A38943F04003A381BDE8F0819A
:103430000F69002FA7D0930718BF00230E6808BF9D
:103440004B69A6EB07080F608B60B8F1000F9ADD9F
:1034500043463A46216A2846A66AB047002807DC58
:10346000A38943F04003A3814FF0FF30BDE8F08112
:103470000744A8EB0008E8E70100402038B50B69D5
:1034800005460C46DBB118B183690BB900F072F840
:103490000C4B9C4209D16C68B4F90C307BB12146CD
:1034A0002846BDE83840FFF761BF074B9C4201D179
:1034B000AC68F1E7054B9C4208BFEC68ECE70020E4
:1034C00038BD00BFEC4F00080C500008CC4F00087E
:1034D000014620B9044B0549186800F0B7B8044B01
:1034E0001868FFF7CBBF00BF2C5000087D340008E0
:1034F000F8000020014900F0A9B800BF7D340008A1
:10350000002310B5044603604360836081814366F5
:10351000C281036143618361194608225C3000F077
:1035200000F9054B24626362044BA362044BE3621F
:10353000044B236310BD00BF333700085537000824
:103540008D370008B137000870B568254A1E55430D
:103550000E4605F1740100F08DFF044640B10021D4
:1035600080E842000C30A06005F1680200F0D9F854
:10357000204670BD836910B5044633BB8364C364C1
:103580000365124B124A1B688262984204BF0123F2
:10359000836100F01FF86060204600F01BF8A06017
:1035A000204600F017F80022E06004216068FFF771
:1035B000A7FF01220921A068FFF7A2FF0222122122
:1035C000E068FFF79DFF0123A36110BD2C500008A8
:1035D000F5340008F8B51C4B07461E68B36913B9EB
:1035E0003046FFF7C7FF4836B4687368013B03D520
:1035F000336833B13668F7E7B4F90C506DB168340D
:10360000F4E704213846FFF79FFF30600028F1D12E
:103610000C2304463B602046F8BD4FF6FF73E38160
:1036200001236566A3812560A560656025616561EC
:10363000A5610822294604F15C0000F072F8656378
:10364000A563A564E564E6E72C5000082DE9F8437E
:1036500080468946002600F1480414B93046BDE88A
:10366000F883A5686768013F01D52468F5E7AB8951
:10367000012B07D9B5F90E30013303D02946404656
:10368000C84706436835EEE770B500250C4E0D4C73
:10369000A41BA410A54209D100F0DCFF00250A4EAE
:1036A0000A4CA41BA410A54205D170BD56F82530C4
:1036B00098470135EEE756F8253098470135F2E78F
:1036C0005C0100205C0100205C01002064010020FE
:1036D000024B0146186800F0CDBE00BFF800002084
:1036E000024B0146186800F0C9BE00BFF800002078
:1036F00010B5C9B202449042034601D1002010BD6A
:103700001C7801308C42F6D1184610BD10B5431E0E
:103710000A44914200D110BD11F8014B03F8014F4A
:10372000F7E703460244934200D1704703F8011BB8
:10373000F9E710B50C46B1F90E1000F07BFB00283C
:10374000ABBF636DA3891B1823F48053ACBF6365C3
:10375000A38110BD2DE9F0411F468B890546DB058D
:103760000C46164605D502230022B1F90E1000F0D2
:1037700067F8A389324623F48053A381B4F90E106D
:103780003B462846BDE8F04100F038B810B50C467D
:10379000B1F90E1000F054F8431CA38915BF606501
:1037A00023F4805343F48053A38118BFA38110BD39
:1037B000B1F90E1000F034B810B59AB00091049130
:1037C0006FF00041029105914FF6FF714FF40274C2
:1037D000ADF80E106946ADF80C4000F09FF80022DD
:1037E000009B1A701AB010BD13460A4601460248E3
:1037F0000068FFF7E1BF00BFF800002038B50546BC
:10380000084611460022054C22601A46FDF7D0FDFD
:10381000431C02D1236803B12B6038BD700A00201D
:1038200038B50023054C054608462360FDF7AAFD80
:10383000431C02D1236803B12B6038BD700A0020FD
:1038400038B50546084611460022054C22601A4646
:10385000FDF7F8FD431C02D1236803B12B6038BD8E
:10386000700A00202DE9F0478E6882469E420C4681
:103870009146984635D88A8912F4906F31D0022348
:10388000256809696F1A656905EB450595FBF3F530
:1038900008F101033B449D4238BF1D46530531D515
:1038A000294600F0E7FD064650B90C23CAF800305F
:1038B000A3894FF0FF3043F04003A381BDE8F087B8
:1038C0003A462169FFF722FFA38923F4906343F06E
:1038D0008003A38126613E44266046466561ED1B58
:1038E000A560464528BF464649463246206800F056
:1038F000B3FAA36800209B1BA36023681E442660C4
:10390000BDE8F0872A4600F0B7FD06460028E1D161
:103910002169504600F0B2FDC7E700002DE9F04FE5
:103920009DB003938B8980461C060D4616460FD525
:103930000B696BB9402100F09DFD2860286128B912
:103940000C23C8F800304FF0FF30C4E040236B6117
:103950000023099320238DF8293030234FF0010BE9
:103960008DF82A3037463C4614F8013B002B3CD1F9
:10397000B7EB060A0BD05346324629464046FFF7BE
:1039800071FF013000F0A280099B534409933B78FA
:10399000002B00F09B8000234FF0FF32049307932D
:1039A000059206938DF853301A93052221785048DA
:1039B000FFF79EFE671C049BD8B9D90644BF20229E
:1039C0008DF853201A0744BF2B228DF853202278FC
:1039D0002A2A16D000210A20079A27463B7801346C
:1039E000303B092B50D9C9B111E0252BC0D0274657
:1039F000B9E73F4A3C46801A0BFA00F0184304909E
:103A0000D3E7039A111D12680391002A01DB079284
:103A100004E0524243F00203079204933B782E2BBA
:103A20000DD17B78791C2A2B32D1039B02371A1DCA
:103A30001B680392002BB8BF4FF0FF3305932D4C4A
:103A4000032239782046FFF753FE38B14023001B8C
:103A500003FA00F0049B01370343049339780622EC
:103A600025487E1C8DF82810FFF742FE002835D02F
:103A7000224BFBB9039B073323F00703083303935F
:103A8000099B4B4409936DE700FB02320121A4E737
:103A900000230A24184605930F463A780131303A3C
:103AA000092A03D9002BCAD00590C8E704FB0020DF
:103AB0000123F1E703AB00932A46114B04A94046CA
:103AC000AFF30080B0F1FF3F8146D9D1AB895B06EF
:103AD0003FF539AF09981DB0BDE8F08F03AB0093F7
:103AE0002A46074B04A9404600F084F8EAE700BFE5
:103AF00030500008365000083A500008000000001E
:103B0000653800082DE9F04791461F468A680B6921
:103B100006469342B8BF1346C9F8003091F84320D7
:103B20000C46DDF8208012B10133C9F8003023685B
:103B3000990642BFD9F800300233C9F80030256831
:103B400015F0060507D104F1190AE368D9F8002039
:103B50009B1A9D422ADB94F843302268003318BF39
:103B6000012392062FD404F1430239463046C04760
:103B7000013022D02368E56803F00603042B18BF48
:103B80000025D9F800204FF0000908BFAD1AA3683E
:103B9000226908BF25EAE5759342C4BF9B1AED1858
:103BA0001A344D451BD10020BDE8F0870123524651
:103BB00039463046C047013003D14FF0FF30BDE8F1
:103BC000F0870135C1E73020E11881F843005A1C25
:103BD00094F845102244023382F84310C3E70123CE
:103BE000224639463046C0470130E6D009F1010986
:103BF000D7E700002DE9F04317460A7E85B06E2A0C
:103C0000984606460C460C9B01F1430E00F0BC8022
:103C10001AD8632A2ED00AD8002A00F0C880582A61
:103C200000F08A8004F1420584F842202AE0642AE8
:103C300001D0692AF6D121681A6811F0800F23D0CB
:103C4000111D1960136827E0732A00F0B48008D8AA
:103C50006F2A2AD0702AE5D10A6842F020020A6051
:103C600003E0752A21D0782ADCD178226F4984F8C4
:103C7000452064E01A6801F14205111D19601368BE
:103C800084F842300123A3E011F0400F02F1040157
:103C90001960D7D0B2F90030002B03DA2D225B4235
:103CA00084F8432062490A2217E02068196810F05E
:103CB000800F03D0081D18600B6806E010F0400F5D
:103CC00001F104001860F7D00B886F2A14BF0A2294
:103CD00008225749002084F843006568002DA5603C
:103CE000C0F29C80206820F004002060002B3FD1AF
:103CF000002D40F095807546082A0BD12368DA071D
:103D000008D5236962689A42DEBF302305F8013C7A
:103D100005F1FF35AEEB05032361CDF800803B468E
:103D200003AA21463046FFF7EDFE013055D14FF092
:103D3000FF3005B0BDE8F08381F845203C4922689A
:103D4000186812F0800F00F104051D6001D00368AF
:103D500002E05506FBD50388D00744BF42F020029D
:103D600022601BB9226822F0200222601022B1E7F3
:103D70007546B3FBF2F002FB1033CB5C05F8013D56
:103D800003460028F5D1B7E708681A6810F0800FDD
:103D9000496904D0101D18601368196007E010F01D
:103DA000400F02F1040018601368F6D01980002358
:103DB00075462361B1E71A68111D19601568002165
:103DC00062682846FFF794FC08B1401B6060636896
:103DD0002361002384F843309FE723692A4639464C
:103DE0003046C0470130A2D023689B0707D5002585
:103DF00004F11909E368039A9B1A9D4205DBE06808
:103E0000039B9842B8BF184693E701234A463946B8
:103E10003046C04701308AD00135EBE7002BA7D1EF
:103E20000B7804F1420584F8423065E752500008EF
:103E30004150000838B50546084611460022054C99
:103E400022601A46FDF7DCFA431C02D1236803B155
:103E50002B6038BD700A0020884210B501EB0203C8
:103E600003D8421E99420CD110BD9842F9D2811854
:103E7000D21AD34200D110BD13F8014D01F8014D03
:103E8000F7E711F8014B02F8014FEBE780F0004033
:103E900002E000BF81F0004142001FBF5FEA410322
:103EA00092EA030F7FEA226C7FEA236C6AD04FEA22
:103EB0001262D2EB1363C1BFD21841404840414067
:103EC000B8BF5B42192B88BF704710F0004F40F419
:103ED000000020F07F4018BF404211F0004F41F435
:103EE000000121F07F4118BF494292EA030F3FD001
:103EF000A2F1010241FA03FC10EB0C00C3F1200314
:103F000001FA03F100F0004302D5494260EB4000A2
:103F1000B0F5000F13D3B0F1807F06D340084FEA0D
:103F2000310102F10102FE2A51D2B1F1004F40EB02
:103F3000C25008BF20F0010040EA0300704749006A
:103F400040EB000010F4000FA2F10102EDD1B0FA35
:103F500080FCACF1080CB2EB0C0200FA0CF0AABF2A
:103F600000EBC25052421843BCBFD04018437047C8
:103F700092F0000F81F4000106BF80F400000132CE
:103F8000013BB5E74FEA41037FEA226C18BF7FEAA5
:103F9000236C21D092EA030F04D092F0000F08BFE7
:103FA0000846704790EA010F1CBF0020704712F0CE
:103FB0007F4F04D1400028BF40F00040704712F10D
:103FC00000723CBF00F50000704700F0004343F072
:103FD000FE4040F4000070477FEA226216BF0846A8
:103FE0007FEA23630146420206BF5FEA412390EA6B
:103FF000010F40F4800070474FF0000304E000BF61
:1040000010F0004348BF40425FEA000C08BF704711
:1040100043F0964301464FF000001CE050EA0102D5
:1040200008BF70474FF000030AE000BF50EA0102EA
:1040300008BF704711F0004302D5404261EB4101D7
:104040005FEA010C02BF84460146002043F0B643FC
:1040500008BFA3F18053A3F50003BCFA8CF2083A21
:10406000A3EBC25310DB01FA02FC634400FA02FC2A
:10407000C2F12002BCF1004F20FA02F243EB020031
:1040800008BF20F00100704702F1200201FA02FC93
:10409000C2F1200250EA4C0021FA02F243EB020086
:1040A00008BF20EADC7070474FF0FF0C1CEAD052CA
:1040B0001EBF1CEAD15392EA0C0F93EA0C0F6FD08B
:1040C0001A4480EA010C400218BF5FEA41211ED069
:1040D0004FF0006343EA501043EA5111A0FB013155
:1040E0000CF00040B1F5000F3EBF490041EAD3712A
:1040F0005B0040EA010062F17F02FD2A1DD8B3F1A6
:10410000004F40EBC25008BF20F00100704790F014
:10411000000F0CF0004C08BF49024CEA502040EA66
:1041200051207F3AC2BFD2F1FF0340EAC25070472C
:1041300040F400004FF00003013A5DDC12F1190F6A
:10414000DCBF00F000407047C2F10002410021FADC
:1041500002F1C2F1200200FA02FC5FEA310040F1F4
:10416000000053EA4C0308BF20EADC70704792F06D
:10417000000F00F0004C02BF400010F4000F013AA5
:10418000F9D040EA0C0093F0000F01F0004C02BFA0
:10419000490011F4000F013BF9D041EA0C018FE70F
:1041A0000CEAD15392EA0C0F18BF93EA0C0F0AD015
:1041B00030F0004C18BF31F0004CD8D180EA01003B
:1041C00000F00040704790F0000F17BF90F0004FD4
:1041D000084691F0000F91F0004F14D092EA0C0FB6
:1041E00001D142020FD193EA0C0F03D14B0218BF49
:1041F000084608D180EA010000F0004040F0FE408F
:1042000040F40000704740F0FE4040F4400070472A
:104210004FF0FF0C1CEAD0521EBF1CEAD15392EAA9
:104220000C0F93EA0C0F69D0A2EB030280EA010C99
:1042300049024FEA402037D04FF0805343EA111132
:1042400043EA10130CF000408B4238BF5B0042F190
:104250007D024FF4000C8B4224BF5B1A40EA0C0035
:10426000B3EB510F24BFA3EB510340EA5C00B3EB67
:10427000910F24BFA3EB910340EA9C00B3EBD10F55
:1042800024BFA3EBD10340EADC001B0118BF5FEAA7
:104290001C1CE0D1FD2A3FF650AF8B4240EBC250D0
:1042A00008BF20F0010070470CF0004C4CEA502091
:1042B0007F32C2BFD2F1FF0340EAC250704740F4E0
:1042C00000004FF00003013A37E792F0000F00F0D2
:1042D000004C02BF400010F4000F013AF9D040EA50
:1042E0000C0093F0000F01F0004C02BF490011F4E4
:1042F000000F013BF9D041EA0C0195E70CEAD153DC
:1043000092EA0C0F08D142027FF47DAF93EA0C0FC2
:104310007FF470AF084676E793EA0C0F04D14B02A6
:104320003FF44CAF08466EE730F0004C18BF31F058
:10433000004CCAD130F000427FF45CAF31F0004352
:104340007FF43CAF5FE700BF4FF0FF3C06E000BFEB
:104350004FF0010C02E000BF4FF0010C4DF804CD0E
:104360004FEA40024FEA41037FEA226C18BF7FEA1E
:10437000236C11D001B052EA530C18BF90EA010F20
:1043800058BFB2EB030088BFC81738BF6FEAE170AF
:1043900018BF40F0010070477FEA226C02D15FEA4B
:1043A000402C05D17FEA236CE4D15FEA412CE1D0B7
:1043B0005DF8040B704700BF844608466146FFE77E
:1043C0000FB5FFF7C9FF002848BF10F1000F0FBD60
:1043D0004DF808EDFFF7F4FF0CBF012000205DF859
:1043E00008FB00BF4DF808EDFFF7EAFF34BF0120DE
:1043F00000205DF808FB00BF4DF808EDFFF7E0FF77
:1044000094BF012000205DF808FB00BF4DF808EDC7
:10441000FFF7D2FF94BF012000205DF808FB00BF2A
:104420004DF808EDFFF7C8FF34BF012000205DF80C
:1044300008FB00BF42000ED2B2F1FE4F0BD34FF08B
:104440009E03B3EB126209D44FEA002343F000430A
:1044500023FA02F070474FF00000704712F1610F2D
:1044600001D1420202D14FF0FF3070474FF00000FF
:10447000704700BF00F050B800F0ACB800F000B8D2
:1044800038B50546002943D051F8043C0C1F002BD9
:10449000B8BFE418FDF735F81E4A1368104633B963
:1044A000636014602846BDE83840FDF72EB8A3428B
:1044B0000BD921686218934201BF1A685B685218D1
:1044C000226063600460EDE713465A680AB1A242B5
:1044D000FAD919685818A0420BD12068014458181D
:1044E00082421960DED110685268014419605A6036
:1044F000D8E702D90C232B60D4E7206821188A4220
:1045000001BF116852680918216062605C60C9E7E8
:1045100038BD00BFDC09002070B5CD1C25F00305B7
:1045200008350C2D38BF0C25002D064601DBA942AD
:1045300003D90C233360002070BDFCF7E2FF234A4F
:104540001468214691B9224C23681BB9304600F00B
:1045500067F820602946304600F062F8431C26D1F7
:104560000C2330463360FCF7D0FFE4E70B685B1B9D
:104570001AD40B2B0FD90B60CC18CD503046FCF75A
:10458000C4FF04F10B00231D20F00700C31A1BD049
:104590005A42E25070BD8C420BBF63684B68136097
:1045A000636018BF0C46E9E70C464968CAE7C41CBB
:1045B00024F00304A04205D0211A304600F030F860
:1045C0000130CDD02560D9E770BD00BFDC090020E7
:1045D000E0090020F8B5074614460E4621B91146F9
:1045E000BDE8F840FFF746BF22B9FFF747FF254671
:1045F0002846F8BD00F024F884420FD921463846F9
:10460000FFF738FF05460028F2D031462246FFF773
:104610007DF831463846FFF731FFE9E73546E7E7F1
:1046200038B50023054C054608462360FCF72CFFEF
:10463000431C02D1236803B12B6038BD700A0020EF
:1046400051F8040C0028A0F10400BCBF0B58C0189E
:1046500070470000F8B500BFF8BC08BC9E46704724
:10466000F8B500BFF8BC08BC9E467047ED010008D5
:10467000F1010008F9010008433A2F557365727380
:104680002F4775737461766F2F446F63756D656E18
:1046900074732F436D70332F4D4245444743435F3E
:1046A0005653432F6D6265642F5441524745545F02
:1046B0004E55434C454F5F4631303352422F5441A3
:1046C000524745545F53544D2F6770696F5F6F6257
:1046D0006A6563742E68006F626A2D3E70696E2091
:1046E000213D202850696E4E616D65294E430000C2
:1046F0000300000000440040100000000A00000019
:104700000038014010000000170000000038014090
:10471000900100001B000000004800401000000055
:104720002B0000000048004090020000FFFF000046
:10473000FFFFFFFF0000000001000000000000403C
:1047400013100000020000000000004013180000D9
:1047500003000000000000401320000006000000DD
:10476000000400401308000007000000000400409F
:104770001310000008000000002C01401308000086
:1047800009000000002C0140131000000A00000086
:10479000002C0140131800000B000000002C014009
:1047A000132000000F00000000000040130C000068
:1047B0001000000000040040131800001100000069
:1047C000000400401320000013000000000000401F
:1047D000131400001400000000040040930B0000BC
:1047E0001500000000040040931300001A000000B0
:1047F00000000040131C00001B00000000000040EF
:10480000132400001D000000002C014013080100CB
:104810001E000000002C0140131001001F000000CA
:10482000002C014013180100260000000004004085
:10483000930C0000270000000004004093140000C7
:104840002800000000040040931C00002900000024
:104850000004004093240000FFFF0000FFFFFFFF63
:1048600000000000020000000044004013000000AF
:10487000090000000038014013000000160000008D
:1048800000380140930100001A0000000048004079
:10489000130000002A0000000048004093020000BE
:1048A000FFFF0000FFFFFFFF00000000433A5C4AEB
:1048B000656E6B696E735C776F726B737061636545
:1048C0005C6D6265642D322D6275696C642D6C6956
:1048D00062726172795C746172676574735C544171
:1048E000524745545F53544D5C6770696F5F617008
:1048F000692E6300000000000000000000000000BE
:1049000000000000000000000000000001000000A6
:10491000020000000300000004000000000000008E
:10492000010000000200000003000000040000007D
:104930000500000050696E6D6170206572726F72C3
:104940003A2077726F6E6720706F7274206E756D8B
:104950006265722E00433A5C4A656E6B696E735CE9
:10496000776F726B73706163655C6D6265642D3225
:104970002D6275696C642D6C6962726172795C7408
:104980006172676574735C5441524745545F535478
:104990004D5C5441524745545F53544D3332463178
:1049A0005C70696E6D61702E630000000000000095
:1049B00001000000110000000200000012000000D1
:1049C0000300000000001110000021100000311051
:1049D0000000121000002210000032100000001031
:1049E00043616E6E6F7420696E697469616C697A77
:1049F000652050574D0A0050574D3A206F7574206E
:104A00006F662072616E6765207072657363616C9A
:104A100065720050574D3A206F7574206F66207292
:104A2000616E676520706572696F64006F626A2DE0
:104A30003E70776D20213D202850574D4E616D65A9
:104A4000294E4300433A5C4A656E6B696E735C772E
:104A50006F726B73706163655C6D6265642D322D7E
:104A60006275696C642D6C6962726172795C7461E3
:104A700072676574735C5441524745545F53544D9B
:104A80005C5441524745545F53544D333246315C78
:104A900070776D6F75745F6170692E630066756EF7
:104AA0006374696F6E20213D202875696E743332FE
:104AB0005F74294E4300457863657074696F6E00BA
:104AC00030203D3D20282A67756172645F6F626AFD
:104AD0006563742026204358415F47554152445F27
:104AE0004D41534B2900433A5C4A656E6B696E73C6
:104AF0005C776F726B73706163655C6D6265642D6A
:104B0000322D6275696C642D6C6962726172795CB8
:104B1000706C6174666F726D5C72657461726765EA
:104B2000742E637070004358415F47554152445F93
:104B3000494E49545F494E5F50524F475245535377
:104B4000203D3D20282A67756172645F6F626A6547
:104B500063742026204358415F47554152445F4DBE
:104B600041534B29004F70657261746F72206E65FE
:104B700077206F7574206F66206D656D6F72790D8B
:104B80000A004F70657261746F72206E65775B5DAD
:104B9000206F7574206F66206D656D6F72790D0AD8
:104BA000005F707472203D3D202854202A29265F22
:104BB0006461746100433A2F4A656E6B696E732FAE
:104BC000776F726B73706163652F6D6265642D32F0
:104BD0002D6275696C642D6C6962726172792F4205
:104BE00055494C442F6D6265642F706C6174666F1B
:104BF000726D2F53696E676C65746F6E5074722E90
:104C000068003A25700043616E6E6F7420696E69AA
:104C10007469616C697A6520554152540A006F626B
:104C20006A5F732D3E7561727420213D20285541C5
:104C300052544E616D65294E4300433A5C4A656E9D
:104C40006B696E735C776F726B73706163655C6DBB
:104C50006265642D322D6275696C642D6C696272B7
:104C60006172795C746172676574735C5441524718
:104C700045545F53544D5C5441524745545F53541F
:104C80004D333246315C73657269616C5F61706986
:104C90002E63006F626A00747820213D2028766FB1
:104CA00069642A29300074785F7769647468203DEC
:104CB0003D203800727820213D2028766F69642AD3
:104CC00029300072785F7769647468203D3D203830
:104CD00000756172745F72747320213D2028554104
:104CE00052544E616D65294E4300756172745F6365
:104CF000747320213D2028554152544E616D652921
:104D00004E430002030405060708090A0B0C0D0EAA
:104D10000F1010010200000000000000000102035B
:104D20000406070809000000000102030400000057
:104D30000000000000000000F92A00081D2B0008F8
:104D4000F52A0008F72A0008433A2F4A656E6B6976
:104D50006E732F776F726B73706163652F6D626511
:104D6000642D322D6275696C642D6C69627261729A
:104D7000792F4255494C442F6D6265642F5441523E
:104D80004745545F4E55434C454F5F463130335293
:104D9000422F5441524745545F53544D2F67706919
:104DA0006F5F6F626A6563742E6800696E64657810
:104DB000203E3D203020262620696E646578203C08
:104DC0003D20313600433A5C4A656E6B696E735C18
:104DD000776F726B73706163655C6D6265642D32B1
:104DE0002D6275696C642D6C6962726172795C64A4
:104DF0007269766572735C427573496E2E6370706A
:104E0000005F70696E5B696E6465785D000000002C
:104E10000000000000000000652C00088D2C000838
:104E20005F6F707300433A2F4A656E6B696E732F24
:104E3000776F726B73706163652F6D6265642D327D
:104E40002D6275696C642D6C6962726172792F4292
:104E500055494C442F6D6265642F706C6174666FA8
:104E6000726D2F43616C6C6261636B2E6800000091
:104E700000000000000000006D2D00086F2D0008EC
:104E80000105000895060008000000000000000071
:104E9000C72D0008C92D0008B5040008ED0400085E
:104EA000636F756C64206E6F742070696E6F7574BB
:104EB0000070696E6D6170206D69732D6D61746332
:104EC000680070696E6D6170206E6F7420666F751A
:104ED0006E6420666F7220706572697068657261B9
:104EE0006C0070696E6D6170206E6F7420666F75F6
:104EF0006E6420666F722066756E6374696F6E00F3
:104F0000ED290008112A0008C12A0008D92A000842
:104F1000592A0008004F0008CC0900206D62656422
:104F2000206173736572746174696F6E2066616964
:104F30006C65643A2025732C2066696C653A2025DF
:104F4000732C206C696E65202564200A00696E74DC
:104F50006572727570745F656E61626C655F636FB8
:104F6000756E746572203C2055494E5433325F4D46
:104F7000415800433A5C4A656E6B696E735C776FAB
:104F8000726B73706163655C6D6265642D322D6256
:104F900075696C642D6C6962726172795C706C61A8
:104FA00074666F726D5C6D6265645F63726974696B
:104FB00063616C2E6300696E7465727275707473D0
:104FC0005F64697361626C6564000000000000004A
:104FD00000000000000000000000000000000000D1
:104FE00000000000000000000000000000000000C1
:104FF00000000000000000000000000000000000B1
:1050000000000000000000000000000000000000A0
:105010000000000000000000000000000000000090
:10502000000000000000000000000000FC00002064
:10503000232D302B2000686C4C0065666745464781
:105040000030313233343536373839414243444504
:105050004600303132333435363738396162636473
:0850600065660000000000007D
:0850680010B1FF7F0100000000
:1050700000000000740A002000A24A04FC00002086
:1050800000000000EC4F00080C500008CC4F000856
:105090000000000000000000000000000000000010
:1050A0000000000000000000000000000000000000
:1050B00000000000000000000000000000000000F0
:1050C00000000000000000000000000000000000E0
:1050D00000000000000000000000000000000000D0
:1050E00031010008A90600080D01000800000000B9
:04000005080018E1F6
:00000001FF
