:020000040800F2
:100000000050002061170008951700089517000898
:1000100095170008951700089517000800000000C4
:10002000000000000000000000000000951700081C
:1000300095170008000000009517000895170008A4
:1000400095170008951700089517000895170008E0
:1000500095170008951700089517000895170008D0
:1000600095170008951700089517000895170008C0
:1000700095170008951700089517000895170008B0
:10008000951700089517000895170008BD09000886
:10009000C109000895170008B9090008951700085C
:1000A0009517000895170008951700089517000880
:1000B0009517000895170008951700089517000870
:1000C0009517000895170008951700089517000860
:1000D0009517000895170008951700089517000850
:1000E00095170008951700089517000800000000F4
:1000F0000000000000000000000000000000000000
:1001000000000000000000005FF808F110B5054C89
:10011000237833B9044B13B10448AFF300800123B3
:10012000237010BD6C01002000000000BC4C0008D2
:100130000C4B43B10C4810B50C49AFF300800C4890
:10014000036823B910BD0A48036833B97047094BE7
:10015000002BF7D0BDE810401847064B002BF5D018
:10016000184700BF00000000BC4C000870010020D0
:100170006801002000000000154B002B08BF134B46
:100180009D46A3F5803A00218B460F461348144A3A
:10019000121A03F018F90F4B002B00D098470E4BA2
:1001A000002B00D098470020002104000D000D48CE
:1001B000002802D00C4801F0E0F803F0B7F8200066
:1001C000290001F099F801F0D5F800BF00000800FF
:1001D0000050002000000000EB1200086C0100201D
:1001E000440800207B130008000000000368184743
:1001F00008B10B68036070477047000038B5B0F96C
:100200000030044601330D4604D13A220549064820
:1002100002F080FE636815B1E268136038BD2269A0
:10022000FBE700BF1C4300087B430008B0F9003027
:1002300010B50133044604D148220649064802F0AD
:1002400069FEA3681A6863681A4214BF012000207F
:1002500010BD00BF1C4300087B430008F8B5094FE0
:10026000094D0A4E074802F045FC50B12C7838463B
:10027000E4B2631CDBB22B7002F0D6FBC0B2305587
:10028000F0E7F8BDB4010020BD020020F802002014
:1002900038B504460D4602F061FE2946204600F0BE
:1002A00088FFBDE8384002F083BE00005523F0B55A
:1002B00087B08DF804304E238DF8053045238DF836
:1002C000063052238DF8073000238DF808303A238A
:1002D000464A8DF80930135CDBB2A22B52D00BD802
:1002E000102B76D0122B45D0FF238DF80A30022335
:1002F00007228DF8083022E0F02B17D0F12B68D0C0
:10030000A32BF1D18DF80A30394B1A788DF80B20D8
:100310005A788DF80C209A78DB788DF80D208DF8BE
:100320000E3006230B228DF8083008E08DF80A30D5
:100330000D238DF80B30032308228DF8083000239D
:100340001F461D462B492C482C4E0B70DCB29442A4
:1003500003F101033FDA06AF3C4414F814EC0478CF
:100360008EEA0505E4B2671CFFB2077006F804E0E8
:100370000127EBE722488DF80A3002F01BFB8DF8CD
:100380000B00D8E71F4C8DF80A302378DB0715D413
:100390000130115C1C484BB264215943092391FB85
:1003A000F3F101F2DC51FFF773FF184802F0ACFCE7
:1003B000174B1860237843F0010323700D238DF849
:1003C0000B300A238DF80C30042309228DF80830F5
:1003D000B5E70622B3E707B10D700378DBB25A1C0C
:1003E000D2B202700A78F25407B0F0BDF8020020D1
:1003F000DC020020D8020020D502002020040020CA
:1004000070020020E4020020F8030020E80200202F
:1004100010040020F8B5394E07463446384D33787D
:10042000BB4269D02B78062B64D8DFE803F0040DBB
:10043000151D252D44002378324ADBB2D35C552BA1
:1004400034D101232B7031E023782E4ADBB2D35C08
:100450004E2B48D10223F5E723782A4ADBB2D35C3E
:10046000452B40D10323EDE72378264ADBB2D35C4A
:10047000522B38D10423E5E72378224ADBB2D25C41
:10048000214B1A700523DDE723781E4ADBB2D35CCB
:100490003A2B28D123781D4A0133137006232B7081
:1004A000194B1B4A1B7883F03603137023780133F2
:1004B000DBB22370B3E7144A12491378013BDBB275
:1004C0001370134A2BB12378DBB2CB5C11784B400D
:1004D000EBE723781278DBB2CB5C9A4203D10B4B6B
:1004E0001878FFF7E3FE00232B702378013BDBB283
:1004F0002370DBE70023A5E70020F8BDBC02002045
:10050000D7020020F8020020E5020020D6020020D9
:10051000D802002038B52B4802F0F6FB2A4D2B4CB0
:100520002B68C01A642805D9264802F0EDFB002389
:10053000286023702378012B21D002D3022B2BD0EB
:1005400038BD204802F0D3FB214D2B68C01A0A2881
:1005500037D91C4802F0CBFB28601E48FFF766FE27
:100560000128054605D100211A48FFF747FE2570EE
:1005700038BD0121BDE838401648FFF73FBE164898
:10058000FFF754FE01281CD10E4802F0B0FB134BBC
:1005900018600223237038BD0F48FFF747FE80B96B
:1005A000084802F0A4FB0E4B3A2118600B4B0D4A91
:1005B0001B68984296BFDB43C01AC018B0FBF1F02D
:1005C000106038BDE80200209C01002014040020C7
:1005D000E0020020C0020020880100201C0400204E
:1005E00018040020DC020020C36810B504460BB1DB
:1005F0009B689847204610BDC36810B504460BB1F0
:100600009B689847204610BD70B5064604460B4BC4
:1006100000F1B80546F8983BB54204D0103D284695
:10062000FFF7EAFFF8E704F13800FFF7DDFF04F118
:100630002800FFF7D9FF204670BD00BFE84A000838
:1006400010B50446FFF7E0FF2046BC2102F0DEFCB7
:10065000204610BD10B50446024B0360FFF7D4FFDF
:10066000204610BD804A00082DE9F04F0027474C76
:1006700087B0474802F01CFB2378464DDFF83481F1
:1006800067F300034FF4E13143482F70237088F87B
:10069000007002F01BFA414B3A460293404B02A90C
:1006A0003D48059302F0BCFA02A8FFF7A5FF02F04F
:1006B00055FC14213B4800F077FD02F079FC40F630
:1006C000C4113848FFF7E4FD4FF4AF7002F099FC15
:1006D0004FF4FA713348FFF7DBFD4FF4AF7002F0CF
:1006E00090FC40F2DC512F48FFF7D2FD3E46DFF888
:1006F000A090DFF8C4B0DFF8C4A0484602F004FBC5
:10070000C01B64280DD9484602F0FEFA0121B14011
:10071000074621F015015846FFF770FD013606F037
:100720001F06214B9AF800101A78914202D01878CF
:10073000FFF770FE2A7898F800309A420DD01648DC
:1007400002F0E9F948B12B781348DBB25A1CD2B257
:100750002A70164AD15C02F076F92378DB0711D5AE
:10076000484602F0D1FA124A1368C01AFA2809D989
:100770004846019202F0C8FA2378019A6FF3000309
:1007800010602370FFF7C6FEB7E700BFE402002049
:10079000E8020020D4020020B40100205D0200081D
:1007A00010430008F8030020BD02002020040020B0
:1007B00010040020D5020020A0010020BC0200206F
:1007C00010B50446FFF746FF2046BC2102F01EFC90
:1007D000204610BD30B514248FB02B4D02F0BEFB67
:1007E00008212A4800F074FC02F0E2FB22460021B6
:1007F000284602F0E8FD2846254D2D2102F0EDFAAD
:1008000022460021284602F0DEFD2846214D1D210A
:1008100002F0E3FA224600211F4C284602F0D3FDE5
:1008200028461C211D4D02F0BEFA4FF416530A2231
:100830000921204602F0EEF82A461949204600F028
:1008400097FD4FF0FF330C930B930A930993089392
:10085000079306930593049303930293019307234D
:10086000104C0093052206230421204602F038F89C
:100870002A460D49204600F07BFD0C480FB0BDE82C
:10088000304002F057BA00BFA0010020F80300205A
:10089000C002002088010020B4010020EC000020EC
:1008A0005506000870020020A9280008E802002070
:1008B0003A4970B54B693A4CDB0721602FD58A68FD
:1008C000384B384813401D1A8A68374B684203EA90
:1008D0000203354A68419E1A8D68344B724203EA1E
:1008E0000503324D7241C5EB030CDCF1000343EB11
:1008F0000C0308B101258D601AB128494FF48075A9
:100900008D601BB125494FF480358D6008B902B95F
:100910002BB1274B274A1B68106801219847236891
:10092000DA685B69920707D09E0705D5204B214AFC
:100930001B68106800219847236899695A698D07D8
:100940005B6909D5900507D5190405D5184B194AD7
:100950001B6810680521984723689E695D69C6F386
:100960008006C5F380255B6946B13DB11A0405D503
:100970000F4B104A1B6810680721984723685B6972
:1009800056B14DB11B0407D5BDE87040084B094A6C
:100990001B6810680221184770BD00BF006400404A
:1009A00020050020030000040003000800000310DD
:1009B0006005002064050020FFF77ABFFFF778BFCD
:1009C000FFF776BF10B50C4CA268A4681346B4F1CB
:1009D000006F0CD1131F094A53F8044F42F8044F1B
:1009E000074CA242F8D1044A4FF0005393601030F4
:1009F00043F8201010BD00BF00ED00E0FCFFFF1F1A
:100A0000E8000020431C10B5044604D106480749FD
:100A1000262202F07FFA2046002100F09BF904F024
:100A20000F040120A04010BD80430008504500087D
:100A300070B504464B1C0E46218010D0C1F3031044
:100A400000F03EF905463046FFF7DCFF05F10803EC
:100A5000A36005F1100314356060E360256170BD8B
:100A6000B0F9000000F016BA38B5B0F9003005460C
:100A700001330C4604D108480849492202F04AFAD9
:100A8000012CB5F9000008BF2146BDE8384018BF69
:100A9000002100F05FB900BF7B430008504500080B
:100AA000F8B52C4B2C4C5E6A1A692360D20712D51C
:100AB000DA68D7070FD56FF001021A61274B1A6861
:100AC00001321A601A68B3B203EB0243244A13607E
:100AD000244B01221A701F4B1A6995071FD5DA683B
:100AE00090071CD56FF002021F4D1A612B889BB234
:100AF00033B1288880B201F043FE00232B800EE042
:100B00001A4F3B684BB14FF6FF70B6B201F038FE9A
:100B10002E803B68013B3B6001E002F0F5F9236861
:100B20001A69510714D5DA68520711D56FF004021B
:100B30000F4D1A615C6A2B68E31AB3F57A7F07D30D
:100B400000F03CFE044B04F57A721B689A632C603B
:100B5000F8BD00BF000800400008002094070020F6
:100B6000880700203C0800208C0700209807002000
:100B700068050020274B37B5DA69274C42F004029C
:100B8000DA61DA69002502F004020192019A1A6919
:100B900042F004021A611A6922F004021A6101F09B
:100BA00027FD1E4B1E4A23604FF6FF73E3601D4B6B
:100BB00020461B682561B3FBF2F3013B6360A5602F
:100BC00001F034FB2946204601F000FC20460421B8
:100BD00001F0FCFB2268144B516A1E2019601B684F
:100BE000124903F57A739363FFF7ECFE104B4FF055
:100BF00080421A6023682046DA6842F00102DA6017
:100C0000DA6842F00402DA6001F0CDFA284603B057
:100C100030BD00BF00100240000800200008004066
:100C200040420F00F400002068050020A10A0008DF
:100C300000E100E008B502F091F9962002F0E1F938
:100C4000962002F0DEF9F8E730B505460C46A1B073
:100C500002F084F929466846224602F017FC051E78
:100C600003DC02F0A5F921B030BD094B1B6823B9A4
:100C700008480221032200F029FC00241DF804107A
:100C80000448013400F056FDAC42F7D1E9E700BF5B
:100C900070070020B40700200FB407B504A951F86D
:100CA000040B0191FFF7D0FF03B05DF804EB04B033
:100CB000704708B501F09CFCBDE8084000F06CBD31
:100CC0001FB5032833D8DFE800F0020E1A261B4BAD
:100CD0001B489A6942F004029A619B6903F004037D
:100CE0000393039B27E0154B16489A6942F00802CC
:100CF0009A619B6903F008030093009B1BE00F4B74
:100D000011489A6942F010029A619B6903F010033E
:100D10000193019B0FE0094B0C489A6942F02002B5
:100D20009A619B6903F020030293029B03E0084849
:100D300002F002F9002005B05DF804FB001002404B
:100D400000080140000C0140001001400014014067
:100D5000984500082DE9F043431C87B005460C4632
:100D600004D147484749562202F0D4F8C5F303108E
:100D7000FFF7A6FF444B04F00F079A69C4F302166D
:100D800042F001029A619B69C4F3C31903F00103A5
:100D9000ACB2019304F00F08019BB9F1000F44D0ED
:100DA00009F1FF31092940D8DFE801F0050A0F14E5
:100DB0001920272E3338354A536843F0010333E0B6
:100DC000324A536843F002032EE0304A536843F03E
:100DD000040329E02D4A536843F0080324E02B4A1A
:100DE000536823F0300343F010031DE0274A536893
:100DF00023F0C00343F0400316E0244A536823F471
:100E0000406343F400630FE0204A536843F44073A7
:100E10000AE01E4A536843F4406305E01B4A5368E6
:100E200023F4C04343F480435360012303FA08F3DF
:100E30000293174B02A953F8273004960393032318
:100E4000059300F0E9FCA4F10D03012B07D80F4A2C
:100E5000536823F0E06343F08063536009E00F2D93
:100E600007D10A4A536823F0E06343F000735360EC
:100E700002E0133C012CF4D907B0BDE8F08300BFB9
:100E800080430008B94500080010024000000140FE
:100E900010460008F8B5431C07460D4604D1254806
:100EA0002549A42202F036F8C7F30310FFF708FF24
:100EB000BCB204F00F06072E8DBF04F00703B30089
:100EC00002469B0088BF021D002D31D0022D02D9A1
:100ED000032D21D0F8BD14680321994021420BD184
:100EE000146808219940214311601168042404FA10
:100EF00003F321EA03031360012D15BF0123C36827
:100F0000C26805FA06F115BFB340194322EA03038C
:100F1000C16018BFC360F8BD106805FA03F1014253
:100F20001FBF1168042000FA03F30B4318BF1360BE
:100F3000F8BD00BF80430008B945000830B502681D
:100F4000254B89B005460C4608461A60002103F07F
:100F50009BF840B920464FF07E5103F0B3F818B12A
:100F60004FF07E5400E00024E86802F097FE21462E
:100F700002F0ECFE03F0B0F860230193AB68286147
:100F8000B0FBF3F0002303930493059306930793B8
:100F90002B7D0290013B032B1CD8DFE803F00802F5
:100FA0000406042404E0082402E00C2400E00024E9
:100FB000094801A9224601F099F910B1074801F04A
:100FC000BBFF6B7D0448214613B101F037FA01E005
:100FD00001F012FA09B030BD6C050020444600084B
:100FE00038B5C46894B1006902F058FE0546204641
:100FF00002F054FE0146284602F05CFF4FF07E519D
:10100000044603F05FF818B9204638BD002038BD0B
:101010004FF07E5038BD00002DE9F041D0F800803F
:10102000264C05460E46C4F80080FFF7D9FF41F272
:101030001113D8F82020074613405BB940F244430F
:10104000D8F8202013402BB9D8F8003023F0010342
:10105000C8F80030B6F5803FACBF4FF4FA730123F7
:10106000AB60174B174A1B68B3FBF2F2AB685343F4
:10107000013BB3F5803F636002D3134801F05CFF8E
:10108000AA68731EB3FBF2F3B3F5803FE36002D3AB
:101090000E4801F051FF002308482361A36001F0CE
:1010A000DFF8EE6028463946FFF748FF22681368EC
:1010B00043F001031360BDE8F08100BF6C05002020
:1010C000F400002040420F005B460008774600080D
:1010D0007FB504460E4608462C4901F0BDFE20604F
:1010E000013004D12A482B492D2201F013FF30464C
:1010F000264901F0CDFE431C054604D1264825496A
:10110000312201F007FFC5F3C4232375234A236866
:10111000C5F30045934265750AD1214B9A6942F4A3
:1011200000629A619B6903F400630193019B1BE0D9
:10113000B3F1804F0BD103F50433DA6942F00102B9
:10114000DA61DB6903F001030293029B0CE0154AAC
:10115000934209D1124BDA6942F00202DA61DB698B
:1011600003F002030393039B3046084901F038FE65
:101170000023E36023610123A680A360204644F698
:101180002061FFF749FF04B070BD00BFDC430008D9
:1011900090460008A846000801470008002C0140BE
:1011A00000100240000400404FF47A735943FFF7E7
:1011B00033BF38B50446084602F074FD0546E068C2
:1011C00002F06CFD0146284602F074FE01462046FE
:1011D000BDE83840FFF7B2BE08B5084B1B685BB9E5
:1011E00007480221032200F071F905484FF4165117
:1011F000BDE8084000F00EBA08BD00BF700700202F
:10120000B407002002284FF0000309DD0749C21E81
:1012100051F8220041F8223020B103685B6818477A
:10122000184670474FF0FF30704700BFAC050020F4
:10123000022870B50C4615460FDC0E4B1B680BB927
:10124000FFF7CAFF6619B44205D00B4814F8011B1A
:1012500000F070FAF7E7284670BD084B033853F8E2
:10126000200020B1BDE8704003681B6818474FF0AC
:10127000FF3070BD70070020B4070020AC050020CF
:10128000022810B50C460ADC0B4B1B680BB9FFF7A4
:10129000A3FF0A4800F02EFA2070012010BD084B71
:1012A000033853F8200020B1BDE8104003689B6864
:1012B00018474FF0FF3010BD70070020B407002022
:1012C000AC050020022807DD064B033853F8200048
:1012D00020B103681B691847002070474FF0FF30AA
:1012E000704700BFAC050020704708B5FFF7E1FC70
:1012F000FFF7FAFF08BD704708B5FFF7FCFFBDE830
:101300000840FFF7B1B900000C4A10B51368184443
:10131000EFF30881884205D3094B0C221A604FF085
:10132000FF3010BD0749096821B1074C24682144EA
:101330008842F1D21060184610BD00BFF0000020B6
:1013400040080020A8050020AC0600200546074CF8
:1013500008B52368986801F00DFF2368D86801F08C
:1013600009FF0DB1FFF766FCFEE700BFF8000020A3
:101370000120704708B5FFF7E9FF0120704770476B
:10138000704708B5FFF7FBFF08BD08B5FFF7F8FF8A
:1013900008BD000010B501F0EDFF044610B9024889
:1013A00001F0CAFD204610BDC947000808B101F090
:1013B000E9BF70474309064900F01F00012282403F
:1013C000203341F82320BFF34F8FBFF36F8F704757
:1013D00000E100E00346426810B517491C6892011D
:1013E00088188C509A68D9684260024642F8081FF3
:1013F0001969516059699160196A00F11002916090
:101400000021C1848184C1858185B3F91A1001311D
:1014100001D1082305E0B3F9183001330CBF0423D0
:101420000C23536001F0B7F820B1BDE81040034829
:1014300001F082BD10BD00BFB00600206A48000860
:101440001A4BF7B5074653F820001E4600282BD04C
:10145000174CBD0163591A6852060AD5DB68590654
:1014600007D5144B01211B68984763596FF0400260
:101470001A6063591A6892060DD5DB6898060AD57A
:101480000C4B56F827001B6800219847084B6FF05B
:1014900020025B591A6063591A68110704D55A690A
:1014A000D20744BF5B68019303B0F0BD740700200E
:1014B000B0060020800700200020FFF7C1BF0120F8
:1014C000FFF7BEBF0220FFF7BBBF0000F0B5044628
:1014D00085B008460E464549154601F0BDFC444915
:1014E0000746284601F0B8FC0146384601F096FC54
:1014F0002060013004D13F483F49642201F00AFDD9
:1015000023683E4A934213D13D4BDA6842F480424D
:10151000DA60DA6822F48042DA609A6942F4804242
:101520009A619B6903F480430193019B00232CE0A3
:10153000344A934213D1324B1A6942F400321A6191
:101540001A6922F400321A61DA6942F40032DA616F
:10155000DB6903F400330293029B012315E02A4A5E
:10156000934213D1264B1A6942F480221A611A69F8
:1015700022F480221A61DA6942F48022DA61DB699E
:1015800003F480230393039B0223636030461749CF
:1015900001F026FC2846164901F022FC721C03D0FB
:1015A00030460121FFF776FC6B1C03D02846012151
:1015B000FFF770FC4FF41653A3600023E360236130
:1015C00063612362268365832046FFF703FF226859
:1015D0000C4B9A4207D10D4B01221A600C48214650
:1015E0004C2201F0E5FE05B0F0BD00BF0845000843
:1015F00094430008824800089E48000800380140D3
:1016000000100240004400400048004070070020E5
:10161000B40700208160FFF7DDBE0000034B1960B6
:101620004168034B43F82120704700BF800700202A
:101630007407002038B509C80D462149884202D1F7
:10164000204925240CE02049884202D11F49262444
:1016500006E01F49884219BF00210C461D49272476
:101660001D489B01AAB1C258D36815B943F02003A5
:1016700001E043F0400365B2D3602846FFF7A2F9CA
:1016800004F007040123154A6D09A34042F82530F0
:1016900038BDC358DA6835B922F02002DA60DB6859
:1016A0001A0606D538BD22F04002DA60DB689B06D8
:1016B00004D42046BDE83840FFF77CBE38BD00BFEB
:1016C00000380140B914000800440040BF1400086D
:1016D00000480040C5140008B006002000E100E00A
:1016E0004368034A9B01D3581868C0F34010704701
:1016F000B006002038B5054644682846FFF7F0FFDD
:101700000028FAD0054AA301D358E968586809B9F6
:10171000C0B238BDC0F3080038BD00BFB00600201D
:101720004368034A9B01D3581868C0F3C010704740
:10173000B006002070B506460C4645683046FFF7F7
:10174000EFFF0028FAD0054AF168AB01D35809B978
:10175000E4B201E0C4F308045C6070BDB006002090
:1017600008488546002103E0074B5B58435004318D
:101770000648074B42189A42F6D300F0C7FFFEF71F
:10178000FBFCFEE700500020C84C0008EC000020E5
:101790006C010020FEE77047074A08B51368032074
:1017A00043F01003136000F025F80F20FFF7E2F973
:1017B000FFF7F1FF002008BD00200240024A136835
:1017C00001331360704700BF84070020014B186885
:1017D000704700BF8407002013B50190FFF7F6FFA4
:1017E0000446FFF7F3FF019B001B9842F9D302B0B8
:1017F00010BD0000074A00F00700D36823F4E0633F
:101800001B041B0C43F0BF6343F4003343EA002383
:10181000D360704700ED00E00023F7B51D460122BC
:101820000C68AA401440944240F0AC804A68122AE6
:101830002BD00ED8022A25D004D84AB3012A30D1A1
:10184000CB682EE0032A1BD0112A2AD1CB6804339F
:1018500027E04F4EB2421BD006D8A6F58016B24202
:1018600016D006F5803608E04A4EB24210D006F592
:101870008036B2420CD0A6F58016B24211D107E0F4
:1018800000230EE0CB6808330BE0CB680C3308E094
:101890008B682BB1012B0CBF04614461082300E06D
:1018A0000423FF2C97BF8646A5F108070668AF0002
:1018B00084BF4668BF004FF00F0202FA07FC26EA19
:1018C0000C0603FA07F746EA070688BF00F1040E84
:1018D000CEF800604F68FE0054D52F4E05F0030C83
:1018E000D6F818E04FEA8C0C4EF0010EC6F818E05E
:1018F000B66902FA0CF206F001060196019E25F087
:10190000030606F1804606F58036D6F808E02EEA92
:10191000020E224A90420ED002F5806290420CD014
:1019200002F5806290420AD002F5806290420CBFBC
:101930000322042204E0002202E0012200E002224D
:1019400002FA0CF242EA0E02B260154A17F4803F26
:10195000166814BF2643A6431660566817F4003F66
:1019600014BF2643A6435660966817F4801F14BF21
:101970002643A6439660D668BF024CBF344326EA8E
:101980000404D4600135102D7FF449AF03B0F0BDDD
:10199000000021100000311000100240000801403A
:1019A000000401400368F7B50546D80703D42B6847
:1019B000990773D4F0E0B74C636803F00C03042B71
:1019C00007D0636803F00C03082B16D16368DA03B1
:1019D00013D54FF4003393FAA3F2226893FAA3F3DA
:1019E000B3FA83F303F01F0322FA03F3DB07DED518
:1019F0006B68002BDBD1012030E26B68B3F5803FD0
:101A000013D05BB9236823F480332360236823F465
:101A100080232360FFF7DAFE06462FE0B3F5A02F00
:101A2000236806D143F480232360236843F4803382
:101A300005E023F480332360236823F480232360AC
:101A4000FFF7C4FE06464FF4003393FAA3F2226870
:101A500093FAA3F3B3FA83F303F01F0322FA03F319
:101A6000DF07A4D4FFF7B2FE801B6428EBD9032064
:101A7000F4E1FFF7ABFE801B6428F8D84FF4003385
:101A800093FAA3F2226893FAA3F3B3FA83F303F071
:101A90001F0322FA03F3D807EBD488E77D4C636871
:101AA00013F00C0F07D0636803F00C03082B20D150
:101AB0006368D9031DD4022393FAA3F2226893FA30
:101AC000A3F3B3FA83F303F01F0322FA03F3DA0755
:101AD00002D52B69012B8ED12268F82191FAA1F150
:101AE000B1FA81F16B6922F0F8028B401343236055
:101AF00052E02A69012372B393FAA3F2B2FA82F296
:101B0000920002F1844202F584021360FFF75EFE48
:101B10000646022393FAA3F25E48226893FAA3F3DF
:101B2000B3FA83F303F01F0322FA03F3DB0705D4B0
:101B3000FFF74CFE801B0228EBD998E70268F821DA
:101B400091FAA1F1B1FA81F16B6922F0F8028B40B0
:101B50001343036020E093FAA3F3B3FA83F39B00EB
:101B600003F1844303F584031A60FFF72FFE064652
:101B7000022393FAA3F2226893FAA3F3B3FA83F34E
:101B800003F01F0322FA03F3DF0705D5FFF71EFE5C
:101B9000801B0228ECD96AE72B681C0746D5AA6986
:101BA0003C4C01233C4912B393FAA3F2B2FA82F2FD
:101BB00041F82230FFF70AFE0646022393FAA3F209
:101BC00093FAA3F2626A93FAA3F3B3FA83F303F0EE
:101BD0001F0322FA03F3D80705D4FFF7F7FD801B94
:101BE0000228EAD943E70120FFF7F6FD1EE093FA49
:101BF000A3F3B3FA83F341F82320FFF7E7FD06468A
:101C0000022393FAA3F293FAA3F2626A93FAA3F37C
:101C1000B3FA83F303F01F0322FA03F3D90705D5C0
:101C2000FFF7D4FD801B0228EAD920E72B685A076A
:101C300004D4EA69002A40F08680DEE0154C174A99
:101C4000E36943F08053E361E36903F08053019358
:101C5000019B136843F480731360FFF7B7FD0646DA
:101C60000E4B1B68DB0505D4FFF7B0FD801B642815
:101C7000F6D9FCE6EB68012B18D08BB9236A23F068
:101C800001032362236A23F004032362FFF79EFD0E
:101C9000064640E0001002408004424200700040CE
:101CA000052B236A06D143F004032362236A43F021
:101CB000010305E023F001032362236A23F00403F8
:101CC0002362FFF783FD0646022393FAA3F293FAF9
:101CD000A3F2B2FA82F242F0400252099A420CBFD9
:101CE000226A626A93FAA3F3B3FA83F303F01F0341
:101CF000DA40D7079DD4FFF769FD41F28833801B96
:101D00009842E1D9B3E6FFF761FD41F28833801BC9
:101D100098423FF6ACAE022393FAA3F293FAA3F2F1
:101D2000B2FA82F242F0400252099A420CBF226A91
:101D3000626A93FAA3F3B3FA83F303F01F03DA4062
:101D4000D007E0D475E7464C636803F00C03082B1A
:101D50003FF451AE022A4FF080735CD193FAA3F3A3
:101D6000B3FA83F39B0003F1844303F58403002259
:101D70001A60FFF72BFD06464FF0007393FAA3F2AB
:101D8000374F226893FAA3F3B3FA83F303F01F03E8
:101D900022FA03F3D90732D42E6AB6F5803F01BF89
:101DA000796821F40030A968014308BF796063684D
:101DB0006A6A23F474133243134363604FF08073F1
:101DC00093FAA3F3B3FA83F39B0003F1844303F57F
:101DD000840301221A60FFF7F9FC05464FF00073F7
:101DE00093FAA3F2226893FAA3F3B3FA83F303F00E
:101DF0001F0322FA03F3DA0707D500202EE0FFF7CE
:101E0000E5FC801B0228B7D931E6FFF7DFFC401B59
:101E10000228E3D92BE693FAA3F3B3FA83F39B00EA
:101E200003F1844303F5840300221A60FFF7CEFC1C
:101E300005464FF0007393FAA3F2226893FAA3F3D6
:101E4000B3FA83F303F01F0322FA03F3DB07D4D5BD
:101E5000FFF7BCFC401B0228EBD908E603B0F0BD3D
:101E6000001002401F4B70B503F110052E4686B0DE
:101E700002AC224618685968083303C2AB421446C4
:101E8000F7D133881848ADF80430416801F00C03ED
:101E9000082B23D14FF4701292FAA2F2B2FA82F216
:101EA00001F47013D34006AA134413F8102CCB038B
:101EB00011D543684FF4003191FAA1F1B1FA81F1E3
:101EC00003F40033CB4006A90B4413F8140C074B62
:101ED000B3FBF0F000E00648504300E0034806B0D2
:101EE00070BD00BF674900080010024000127A0070
:101EF00000093D00544AF8B51368064603F007038D
:101F000099420D460AD831688C0713D54F4843686B
:101F100023F0F002B368134343600BE0136823F02F
:101F200007030B431360136803F007038B42EAD0E7
:101F30000120F8BDC80706D4434A136803F007031D
:101F40009D424DD356E07268404C012A02D14FF4B5
:101F5000003304E0022A0CBF4FF00073022393FA0F
:101F6000A3F1216893FAA3F3B3FA83F303F01F03F9
:101F700021FA03F3D907DBD5636823F003031A437F
:101F80006260FFF723FC73680746012B0DD163687D
:101F900003F00C03042BCFD0FFF718FC41F2883379
:101FA000C01B9842F3D90320F8BD022B13D16368FC
:101FB00003F00C03082BBFD0FFF708FC41F2883375
:101FC000C01B9842F3D9EEE7FFF700FC41F28833DB
:101FD000C01B9842E7D8636813F00C0FF4D1ABE74D
:101FE000136823F007032B431360136803F0070300
:101FF000AB429DD13168154C11F0040F05D06368D8
:1020000023F4E062F368134363600B0741BF636826
:10201000326923F4605343EAC20348BF6360FFF7A9
:1020200021FF6368F02292FAA2F2B2FA82F203F080
:10203000F003D340064AD35CD840064B18600F200B
:10204000FEF798FD0020F8BD00200240001002407D
:1020500079490008F4000020084B4FF4E0625B6807
:1020600092FAA2F2B2FA82F203F4E063D340044A95
:10207000D35C044A1068D840704700BF001002408B
:1020800089490008F4000020084B4FF460525B6857
:1020900092FAA2F2B2FA82F203F46053D340044AF5
:1020A000D35C044A1068D840704700BF001002405B
:1020B00089490008F4000020036A70B523F0010389
:1020C0000362036A426884690D6824F0730425433F
:1020D00023F002048B6823430A4CA0420BD1CC6846
:1020E00023F0080323438E694C6922F44072344381
:1020F00023F00403224342604A688561426303621D
:1021000070BD00BF002C0140036A30B523F480731A
:102110000362036A4268C4690D6824F073042C43A7
:102120008D6823F4007343EA05230C4DA8420ED1B9
:10213000CD6823F4006343EA05234D6922F440523D
:1021400042EA05128D6923F4806342EA0512426077
:102150004A68C461C263036230BD00BF002C014005
:10216000036A30B523F480530362036A4468C2698A
:102170000D6822F4E64242EA05228D6823F40053FA
:1021800043EA0533064DA84202BF4D6924F480445A
:1021900044EA85144460C2614A680264036230BD47
:1021A000002C014070470268022380F83930136820
:1021B00043F001031360012380F839300020704799
:1021C00070470000184A036890420AD0B0F1804F6F
:1021D00007D0A2F59432904203D002F5806290427B
:1021E00015D14A6823F0700313430F4A90420AD076
:1021F000B0F1804F07D0A2F59432904203D002F59F
:102200008062904203D1CA6823F440731343036091
:102210008B68C3620B688362034B984204BF0B69EF
:102220000363012343617047002C014010B504464D
:10223000A0B190F8393003F0FF021BB980F83820C4
:10224000FFF7B0FF022384F839302068211DFFF723
:10225000B9FF012384F83930002010BD012010BDE2
:1022600010B50446A0B190F8393003F0FF021BB955
:1022700080F83820FFF7A4FF022384F83930206863
:10228000211DFFF79FFF012384F83930002010BD86
:10229000012010BD036A30B523F010030362036A06
:1022A000426884690D6824F4E64444EA05248D6894
:1022B00023F0200343EA05130B4DA8420ED1CD684D
:1022C00023F0800343EA05134D6922F4406242EA99
:1022D00085028D6923F0400342EA850242604A6824
:1022E00084618263036230BD002C014038B590F8F0
:1022F00038300446012B0D464FF0020058D0012320
:1023000084F8383084F839000C2A4BD8DFE802F022
:10231000074A4A4A174A4A4A294A4A4A390020681B
:10232000FFF7CAFE23689A6942F008029A619A6927
:1023300022F004029A6199692A690A430FE0206831
:10234000FFF7A8FF236829699A6942F400629A613D
:102350009A6922F480629A619A6942EA01229A613A
:1023600020E02068FFF7D0FE2368DA6942F0080217
:10237000DA61DA6922F00402DA61D9692A690A436A
:102380000FE02068FFF7ECFE23682969DA6942F460
:102390000062DA61DA6922F48062DA61DA6942EABB
:1023A0000122DA610123002084F8393084F83800F2
:1023B00038BD10B50123046A8B4024EA030303628D
:1023C000036A8A401343036210BD000010B504463F
:1023D00001220068FFF7EDFF2368064A00209342C0
:1023E00002BF5A6C42F400425A641A6842F0010279
:1023F0001A6010BD002C014010B50446012200688F
:10240000FFF7D7FF2368064A0020934202BF5A6CA9
:1024100042F400425A641A6842F001021A6010BD88
:10242000002C014010B50423046A8B4024EA030306
:102430000362036A8A401343036210BD10B5044669
:1024400004220068FFF7EEFF236800205A6C42F474
:1024500000425A641A6842F001021A6010BD00007E
:102460002DE9F047056801692B69804623F4405245
:10247000C368192413432B618368EA6819434369CD
:10248000194322F4B05323F00C030B43EB606B6948
:1024900023F44072836913436B613D4B9D4231D1FC
:1024A000FFF7F2FD6043D8F804604FF06409B6000E
:1024B000B0FBF6F6FFF7E8FD6043D8F80430B6FB52
:1024C000F9F69B00B0FBF3F7FFF7DEFD6043D8F8A9
:1024D000043036019B00B0FBF3F0B0FBF9F009FBD0
:1024E00010731B013233B3FBF9F303F0F007FFF76E
:1024F000CBFD6043D8F804209200B0FBF2FAFFF75E
:10250000C3FD30E0FFF7A8FD6043D8F804604FF04A
:102510006409B600B0FBF6F6FFF79EFD6043D8F8FD
:102520000430B6FBF9F69B00B0FBF3F7FFF794FD20
:102530006043D8F8043036019B00B0FBF3F0B0FBE9
:10254000F9F009FB10731B013233B3FBF9F303F00D
:10255000F007FFF781FD6043D8F804209200B0FB3C
:10256000F2FAFFF779FD4443D8F804008000B4FB89
:10257000F0F0B0FBF9F009FB10A212013232B2FB0D
:10258000F9F202F00F02BB183344AB60BDE8F087EC
:1025900000380140704710B5044630B390F8393028
:1025A00003F0FF021BB980F83820FFF7F3FF226821
:1025B000022384F83930D368204623F40053D360D3
:1025C000FFF74EFF236800201A6922F490421A6137
:1025D0005A6922F02A025A61DA6842F40052DA603B
:1025E0000123E06384F8393010BD012010BD0000E4
:1025F000114A124B516801F00C01042901D008293D
:1026000001D00F490EE051685068C1F38341C00307
:1026100001F1020102D55068800301D5094800E0AC
:1026200007484143196052680749C2F30312895CA5
:102630001A68CA401A60704700100240F400002077
:1026400000127A0000093D007949000830B50123E5
:1026500091B0069310B94FF4803301E04FF4A023FA
:1026600007934FF48033002402250E9306A84FF4FD
:10267000E01308940D950F93FFF794F978B90F23A1
:10268000019303904FF480630590294601A80295B9
:102690000493FFF72FFCB0FA80F0400900E02046D9
:1026A00011B030BD30B5032391B0069301230A93D6
:1026B000102300240B9302254FF4601306A80794FF
:1026C0000D950E940F93FFF76DF978B90F230193D1
:1026D00003904FF480630590294601A80295049366
:1026E000FFF708FCB0FA80F0400900E0204611B086
:1026F00030BD08B50120FFF7A9FF30B9FFF7A6FFED
:1027000018B9FFF7CFFF00B9FEE708BD10B5174CA9
:10271000236843F0010323606268154B1340636034
:1027200023684FF0006223F0847323F48033236026
:10273000236823F480232360636823F4FE0363602B
:102740004FF41F03A3600B4B9A600B4B0B4A1A60AC
:10275000FFF722F8FFF7CDFF236943F0040323615D
:10276000236923F00403236110BD00BF0010024061
:102770000000FFF800ED00E0F400002000127A00F5
:10278000044B054A13605863DA6842F00202DA60CB
:10279000704700BF0008004000080020054B186883
:1027A00030B901221A60044A044B1A60FEF7E2B9FC
:1027B000704700BF9007002000080040000800207C
:1027C0000B4B0C4A10B513600B4A1C4612680AB931
:1027D000FFF7E4FF094A002309491370636A086898
:1027E0001278012A0ABF074B03EB0040186810BD9E
:1027F0000008004000080020900700203C0800204E
:10280000940700208807002038B50446FFF7D8FF5A
:10281000144B201A5D6A0028ADB203DCBDE83840D5
:1028200000F072BB104B114C021480B21A60208071
:102830002288C5F57F4392B2FF339A4207DC208895
:10284000284480B2FFF79CFF0023238038BD4FF659
:10285000FF70FFF795FF208880B20130284480B2D6
:10286000208038BD00080040980700208C07002019
:10287000034B044A1360DA6822F00202DA60704700
:102880000008004000080020044B054A13601A6944
:10289000920744BF6FF002021A61704700080040BF
:1028A000000800207047704770B504460546064B87
:1028B00000F14006036055F8040F08B1FEF776FDFD
:1028C000B542F8D1204670BDA049000810B50446B5
:1028D000FFF7EAFF2046FEF769FD204610BD000025
:1028E0002DE9F0410546A84688B0ADF80430BDF9A1
:1028F00038302F48ADF80630BDF93C300024ADF833
:102900000830BDF940302860ADF80A30BDF94430D8
:10291000ADF80010ADF80C30BDF94830ADF802202C
:10292000ADF80E30BDF94C306C64ADF81030BDF927
:102930005030ADF81230BDF95430ADF81430BDF957
:102940005830ADF81630BDF95C30ADF81830BDF92F
:102950006030ADF81A30BDF96430ADF81C30BDF907
:102960006830ADF81E303DF914707B1C0CD014207B
:10297000FEF710FD06460021142200F024FD30462B
:10298000394600F010FA00E0002601371FBF01238E
:102990006A6CA340134304F1010448F8046F18BFA4
:1029A0006B64102CDFD1284608B0BDE8F08100BF71
:1029B000A049000803682DE9F0419B680546984747
:1029C0000124002755F8246004F1FF3896B1B6F9C8
:1029D0000030013304D10C480C49482200F09AFA27
:1029E000B3681A6873681A4214BF0123002303FAFC
:1029F00008F31F430134112CE4D12B682846DB680F
:102A000098473846BDE8F0817B430008B04900088C
:102A10007047704710B5044600F098F8014B204607
:102A2000236010BD804A000838B5044603681B685F
:102A30009847204600F080F80546236820465B68EA
:102A40009847284638BD38B504460D4603681B68CC
:102A500098472946204600F072F80546236820462C
:102A60005B689847284638BD70477047704710B577
:102A700088B1146853680CB9DA070CD513F0010F4C
:102A80004FEA630318BFC258184418BF14592346AD
:102A9000BDE81040184710BD70B509014418D4F8BE
:102AA000A43001F1980505442BB90648064940F2C7
:102AB000E71200F02FFAD4F8A4302846BDE87040A1
:102AC0001B681847904A0008954A000870B50546EB
:102AD0000E46044655F84C3B1B689847284631463D
:102AE000FEF798FD2368C4F8B8602046BDE8704042
:102AF0005B68184738B5054655F84C3B04461B68DB
:102B000098472846FEF7ECFD0546236820465B689B
:102B10009847284638BD38B5054655F84C3B04461D
:102B20001B6898472846FEF7FBFD054623682046AC
:102B30005B689847284638BD4C30FEF7DBBD10B5C2
:102B40000C464C30FEF7F6FD204610BD2DE9F3474C
:102B50009046024604469A462B4B002542F8083B15
:102B6000009502AB0195894613E90300274B82E8E3
:102B70000300236148F207036361254BE561A4610B
:102B800022626362BFF36F8FBFF34F8F04F14C0675
:102B900004F198076563656484F8485084F84950E7
:102BA000304629464C2200F00EFCC4F8A450C4F86C
:102BB000B450C4F8B8A03846FDF71EFD2FB1154B30
:102BC000C4F89830144BC4F8A43004F1A805284682
:102BD000FDF712FD2DB10F4BC4F8A8300E4BC4F811
:102BE000B430424630464946FEF770FC3046D4F8D1
:102BF000B810FEF70FFD304608492246FEF70EFDDD
:102C0000204602B0BDE8F087E84A000801A090E83D
:102C10006F2A0008692A000810430008992A000852
:102C20002DE9F04107468846164657F84C3B0546C5
:102C30001B68984700F092F9D8F80C3034019834AA
:102C4000ABB12C442046FDF7D7FC64B1D8F80C306A
:102C50001BB15B68204641469847D8F80C2005EB2D
:102C60000613C3F8A42038463146012211E005EBD3
:102C700004084046FDF7C0FCB8F1000F06D00A4B2F
:102C80000A4A2B5105EB0613C3F8A42038463146F7
:102C90000022FEF7CFFC00F08BF92B682846BDE838
:102CA000F0415B68184700BF692A0008104300081C
:102CB00010B5044600F052F923682BB9E06800F023
:102CC0001BF9012360602360BDE8104000F070B97B
:102CD00038B5054600F042F92C6824B1E86800F0E8
:102CE0000BF96C68041B00F063F9204638BD38B559
:102CF000054600F033F92846AC68FFF7E9FF0444C5
:102D000000F056F9204638BD08B5FFF7F0FF4FF444
:102D10007A7390FBF3F008BD10B5044600F01EF97D
:102D2000E06800F0E9F800236060A360BDE81040AF
:102D300000F03EB9002310B5036043608360044691
:102D400000F0DEF8E0602046FFF7E6FF204610BD09
:102D500038B5B0F90030044601330D4604D10648B9
:102D600006493A2200F0D6F863680DB1E26800E047
:102D70002269136038BD00BF7B430008B0490008DA
:102D800070B50E4604461546FDF752FE013609D0D1
:102D900020460021FDF768FE20462946BDE8704028
:102DA000FDF75EBE70BD0022FFF7EABF70B50E46AC
:102DB00004461546FDF73CFE01360DD02046294657
:102DC000FFF7C6FF20460121FDF74EFE2046BDE875
:102DD00070400021FDF744BE70BD0022FFF7E6BF42
:102DE00010B50446013001D110BD0C31B1F90030ED
:102DF0005A1C0BD0A342F8D120468968FDF7AAFFE0
:102E00002046BDE810400021FEF744B80248BDE866
:102E1000104000F091B800BFF84A0008884208B599
:102E20000AD0431C07D0013106D0044800F084F8D2
:102E30004FF0FF3008BD084608BD00BF094B000831
:102E4000B1F900305A1C05D0834201D1486870475F
:102E50000C31F5E718467047421C10B5044607D000
:102E6000FFF7EEFF431C044602D1024800F064F86D
:102E7000204610BD1A4B0008B1F900305A1C05D08D
:102E8000834201D1886870470C31F5E718467047D6
:102E9000421C10B5044607D0FFF7EEFF431C044662
:102EA00002D1024800F048F8204610BD3A4B000815
:102EB000036870B5DB680446984763685A682368FE
:102EC0001AB99B68BDE8704018475B681568984759
:102ED000281A0028636808DC5A68916859601B68E2
:102EE000002BEAD050689847E7E721685A68BDE8A8
:102EF00070400B691068184703685B68184700004A
:102F0000004870476C4B00080148FFF7D1BF00BF75
:102F10006C4B000870B506460D46144600F01EF8CE
:102F200031462A4623460348FDF7B6FEBDE8704009
:102F3000FDF780BE744B00080FB407B504A951F823
:102F4000040B0191FDF780FE0120FEF713FAEFF369
:102F5000108000F0010080F00100704738B5FFF7E5
:102F6000F6FF80F00100C5B272B60C4C23680BB9B5
:102F70000B4B1D702368013304D10A480A493522DE
:102F8000FFF7C8FF23682BB125B908480649392245
:102F9000FFF7C0FF23680133236038BDA40700207A
:102FA000A8070020A54B0008CB4B00080E4C0008DA
:102FB00010B50A4C236883B1FFF7C9FF20B1084858
:102FC00008494A22FFF7A6FF2368013B23602368D4
:102FD0001BB9054B1B7803B962B610BDA4070020CE
:102FE0000E4C0008CB4B0008A807002038B504465B
:102FF000FFF7E6FB0546FFF7E3FB401BA042FAD3D1
:1030000038BD4FF47A735843FFF7F0BFFEF7CEB9DF
:103010008A892DE9F041054610070C465AD44B68C1
:10302000002B05DC0B6C002B02DC0020BDE8F081DE
:10303000E66A002EF9D0002312F480522F682B602C
:1030400033D0606DA3895A0705D56368C01A636BD6
:103050000BB1236CC01A00230246E66A216A284697
:10306000B047431CA38906D129681D294BD82B4A98
:10307000CA40D60747D5002262602269D90422607F
:1030800004D5421C01D12B6803B96065616B2F60C8
:103090000029CAD004F14403994202D0284601F025
:1030A0003FF800206063BDE8F081216A01232846D3
:1030B000B047411CC6D12B68002BC3D01D2B01D0BB
:1030C000162B01D12F60B0E7A38943F04003A38101
:1030D000BDE8F0810F69002FA7D0930718BF002328
:1030E0000E6808BF4B69A6EB07080F608B60B8F14C
:1030F000000F9ADD43463A46216A2846A66AB04741
:10310000002807DCA38943F04003A3814FF0FF3080
:10311000BDE8F0810744A8EB0008E8E70100402083
:1031200038B50B6905460C46DBB118B183690BB99C
:1031300000F072F80C4B9C4209D16C68B4F90C3069
:103140007BB121462846BDE83840FFF761BF074BF9
:103150009C4201D1AC68F1E7054B9C4208BFEC688A
:10316000ECE7002038BD00BF444C0008644C000868
:10317000244C0008014620B9044B0549186800F0AA
:10318000B7B8044B1868FFF7CBBF00BF844C0008EA
:1031900021310008F8000020014900F0A9B800BF63
:1031A00021310008002310B50446036043608360AA
:1031B00081814366C28103614361836119460822AC
:1031C0005C3000F000F9054B24626362044BA3629B
:1031D000044BE362044B236310BD00BFD7330008E8
:1031E000F9330008313400085534000870B56825FB
:1031F0004A1E55430E4605F1740100F08DFF04464A
:1032000040B1002180E842000C30A06005F1680266
:1032100000F0D9F8204670BD836910B5044633BB71
:103220008364C3640365124B124A1B68826298422E
:1032300004BF0123836100F01FF86060204600F0A6
:103240001BF8A060204600F017F80022E06004217F
:103250006068FFF7A7FF01220921A068FFF7A2FF1E
:1032600002221221E068FFF79DFF0123A36110BD38
:10327000844C000899310008F8B51C4B07461E68BD
:10328000B36913B93046FFF7C7FF4836B4687368AF
:10329000013B03D5336833B13668F7E7B4F90C5016
:1032A0006DB16834F4E704213846FFF79FFF3060C2
:1032B0000028F1D10C2304463B602046F8BD4FF6B0
:1032C000FF73E38101236566A3812560A5606560C6
:1032D00025616561A5610822294604F15C0000F0C2
:1032E00072F86563A563A564E564E6E7844C0008AD
:1032F0002DE9F84380468946002600F1480414B9B8
:103300003046BDE8F883A5686768013F01D52468A9
:10331000F5E7AB89012B07D9B5F90E30013303D09E
:1033200029464046C84706436835EEE770B5002594
:103330000C4E0D4CA41BA410A54209D100F0DCFFDB
:1033400000250A4E0A4CA41BA410A54205D170BD4D
:1033500056F8253098470135EEE756F8253098475E
:103360000135F2E75C0100205C0100205C010020D7
:1033700064010020024B0146186800F0CDBE00BF7A
:10338000F8000020024B0146186800F0C9BE00BFDB
:10339000F800002010B5C9B202449042034601D1A2
:1033A000002010BD1C7801308C42F6D1184610BDAB
:1033B00010B5431E0A44914200D110BD11F8014BD3
:1033C00003F8014FF7E703460244934200D17047E8
:1033D00003F8011BF9E710B50C46B1F90E1000F027
:1033E0007BFB0028ABBF636DA3891B1823F48053BC
:1033F000ACBF6365A38110BD2DE9F0411F468B89E9
:103400000546DB050C46164605D502230022B1F918
:103410000E1000F067F8A389324623F48053A3818D
:10342000B4F90E103B462846BDE8F04100F038B82C
:1034300010B50C46B1F90E1000F054F8431CA389E6
:1034400015BF606523F4805343F48053A38118BFF4
:10345000A38110BDB1F90E1000F034B810B59AB0C8
:10346000009104916FF00041029105914FF6FF71B8
:103470004FF40274ADF80E106946ADF80C4000F040
:103480009FF80022009B1A701AB010BD13460A461E
:10349000014602480068FFF7E1BF00BFF8000020C6
:1034A00038B50546084611460022054C22601A46EA
:1034B000FDF7BEFE431C02D1236803B12B6038BD6B
:1034C0004008002038B50023054C05460846236017
:1034D000FDF798FE431C02D1236803B12B6038BD71
:1034E0004008002038B50546084611460022054C24
:1034F00022601A46FDF7E6FE431C02D1236803B1A1
:103500002B6038BD400800202DE9F0478E688246C8
:103510009E420C469146984635D88A8912F4906F9F
:1035200031D00223256809696F1A656905EB4505E5
:1035300095FBF3F508F101033B449D4238BF1D465E
:10354000530531D5294600F0E7FD064650B90C2356
:10355000CAF80030A3894FF0FF3043F04003A38145
:10356000BDE8F0873A462169FFF722FFA38923F4DB
:10357000906343F08003A38126613E442660464663
:103580006561ED1BA560464528BF46464946324663
:10359000206800F0B3FAA36800209B1BA360236897
:1035A0001E442660BDE8F0872A4600F0B7FD0646B7
:1035B0000028E1D12169504600F0B2FDC7E70000C4
:1035C0002DE9F04F9DB003938B8980461C060D4674
:1035D00016460FD50B696BB9402100F09DFD2860A0
:1035E000286128B90C23C8F800304FF0FF30C4E040
:1035F00040236B610023099320238DF82930302369
:103600004FF0010B8DF82A3037463C4614F8013B49
:10361000002B3CD1B7EB060A0BD053463246294665
:103620004046FFF771FF013000F0A280099B534430
:1036300009933B78002B00F09B8000234FF0FF3272
:1036400004930793059206938DF853301A9305223D
:1036500021785048FFF79EFE671C049BD8B9D90615
:1036600044BF20228DF853201A0744BF2B228DF827
:10367000532022782A2A16D000210A20079A2746AA
:103680003B780134303B092B50D9C9B111E0252BCF
:10369000C0D02746B9E73F4A3C46801A0BFA00F0F3
:1036A00018430490D3E7039A111D12680391002A6E
:1036B00001DB079204E0524243F0020307920493B5
:1036C0003B782E2B0DD17B78791C2A2B32D1039B92
:1036D00002371A1D1B680392002BB8BF4FF0FF334F
:1036E00005932D4C032239782046FFF753FE38B15D
:1036F0004023001B03FA00F0049B013703430493AB
:103700003978062225487E1C8DF82810FFF742FEE6
:10371000002835D0224BFBB9039B073323F0070366
:1037200008330393099B4B4409936DE700FB023276
:103730000121A4E700230A24184605930F463A788E
:103740000131303A092A03D9002BCAD00590C8E7C5
:1037500004FB00200123F1E703AB00932A46114B41
:1037600004A94046AFF30080B0F1FF3F8146D9D1B4
:10377000AB895B063FF539AF09981DB0BDE8F08F06
:1037800003AB00932A46074B04A9404600F084F897
:10379000EAE700BF884C00088E4C0008924C0008F5
:1037A00000000000093500082DE9F04791461F464A
:1037B0008A680B6906469342B8BF1346C9F80030C1
:1037C00091F843200C46DDF8208012B10133C9F88E
:1037D00000302368990642BFD9F800300233C9F897
:1037E0000030256815F0060507D104F1190AE368D1
:1037F000D9F800209B1A9D422ADB94F843302268B6
:10380000003318BF012392062FD404F14302394636
:103810003046C047013022D02368E56803F0060334
:10382000042B18BF0025D9F800204FF0000908BF6D
:10383000AD1AA368226908BF25EAE5759342C4BFA3
:103840009B1AED181A344D451BD10020BDE8F087B6
:103850000123524639463046C047013003D14FF06C
:10386000FF30BDE8F0870135C1E73020E11881F86D
:1038700043005A1C94F845102244023382F8431046
:10388000C3E70123224639463046C0470130E6D01F
:1038900009F10109D7E700002DE9F04317460A7E38
:1038A00085B06E2A984606460C460C9B01F1430EE5
:1038B00000F0BC801AD8632A2ED00AD8002A00F063
:1038C000C880582A00F08A8004F1420584F842201A
:1038D0002AE0642A01D0692AF6D121681A6811F019
:1038E000800F23D0111D1960136827E0732A00F0A0
:1038F000B48008D86F2A2AD0702AE5D10A6842F02D
:1039000020020A6003E0752A21D0782ADCD17822CF
:103910006F4984F8452064E01A6801F14205111DE1
:103920001960136884F842300123A3E011F0400FBE
:1039300002F104011960D7D0B2F90030002B03DA8C
:103940002D225B4284F8432062490A2217E0206856
:10395000196810F0800F03D0081D18600B6806E08E
:1039600010F0400F01F104001860F7D00B886F2AA7
:1039700014BF0A2208225749002084F843006568D2
:10398000002DA560C0F29C80206820F0040020601B
:10399000002B3FD1002D40F095807546082A0BD1B1
:1039A0002368DA0708D5236962689A42DEBF3023AC
:1039B00005F8013C05F1FF35AEEB05032361CDF8B9
:1039C00000803B4603AA21463046FFF7EDFE01305A
:1039D00055D14FF0FF3005B0BDE8F08381F84520A8
:1039E0003C492268186812F0800F00F104051D6040
:1039F00001D0036802E05506FBD50388D00744BF19
:103A000042F0200222601BB9226822F020022260CC
:103A10001022B1E77546B3FBF2F002FB1033CB5C2A
:103A200005F8013D03460028F5D1B7E708681A6894
:103A300010F0800F496904D0101D186013681960D8
:103A400007E010F0400F02F1040018601368F6D090
:103A50001980002375462361B1E71A68111D1960AA
:103A60001568002162682846FFF794FC08B1401BE6
:103A7000606063682361002384F843309FE7236913
:103A80002A4639463046C0470130A2D023689B07FA
:103A900007D5002504F11909E368039A9B1A9D4292
:103AA00005DBE068039B9842B8BF184693E7012303
:103AB0004A4639463046C04701308AD00135EBE7E7
:103AC000002BA7D10B7804F1420584F8423065E75A
:103AD000AA4C0008994C000838B50546084611461E
:103AE0000022054C22601A46FDF7CAFB431C02D196
:103AF000236803B12B6038BD40080020884210B510
:103B000001EB020303D8421E99420CD110BD98422A
:103B1000F9D28118D21AD34200D110BD13F8014D49
:103B200001F8014DF7E711F8014B02F8014FEBE7FF
:103B300080F0004002E000BF81F0004142001FBF62
:103B40005FEA410392EA030F7FEA226C7FEA236C6B
:103B50006AD04FEA1262D2EB1363C1BFD218414060
:103B600048404140B8BF5B42192B88BF704710F0F6
:103B7000004F40F4000020F07F4018BF404211F099
:103B8000004F41F4000121F07F4118BF494292EA01
:103B9000030F3FD0A2F1010241FA03FC10EB0C002D
:103BA000C3F1200301FA03F100F0004302D54942BA
:103BB00060EB4000B0F5000F13D3B0F1807F06D367
:103BC00040084FEA310102F10102FE2A51D2B1F15F
:103BD000004F40EBC25008BF20F0010040EA030054
:103BE0007047490040EB000010F4000FA2F1010201
:103BF000EDD1B0FA80FCACF1080CB2EB0C0200FA8B
:103C00000CF0AABF00EBC25052421843BCBFD040D8
:103C10001843704792F0000F81F4000106BF80F452
:103C200000000132013BB5E74FEA41037FEA226C15
:103C300018BF7FEA236C21D092EA030F04D092F0E0
:103C4000000F08BF0846704790EA010F1CBF002014
:103C5000704712F07F4F04D1400028BF40F0004071
:103C6000704712F100723CBF00F50000704700F091
:103C7000004343F0FE4040F4000070477FEA2262B8
:103C800016BF08467FEA23630146420206BF5FEA89
:103C9000412390EA010F40F4800070474FF0000389
:103CA00004E000BF10F0004348BF40425FEA000C50
:103CB00008BF704743F0964301464FF000001CE0F8
:103CC00050EA010208BF70474FF000030AE000BF4E
:103CD00050EA010208BF704711F0004302D540428C
:103CE00061EB41015FEA010C02BF844601460020FE
:103CF00043F0B64308BFA3F18053A3F50003BCFA19
:103D00008CF2083AA3EBC25310DB01FA02FC6344C5
:103D100000FA02FCC2F12002BCF1004F20FA02F2CC
:103D200043EB020008BF20F00100704702F12002BF
:103D300001FA02FCC2F1200250EA4C0021FA02F220
:103D400043EB020008BF20EADC7070474FF0FF0C25
:103D50001CEAD0521EBF1CEAD15392EA0C0F93EA20
:103D60000C0F6FD01A4480EA010C400218BF5FEAC2
:103D700041211ED04FF0006343EA501043EA511135
:103D8000A0FB01310CF00040B1F5000F3EBF49002F
:103D900041EAD3715B0040EA010062F17F02FD2A33
:103DA0001DD8B3F1004F40EBC25008BF20F0010016
:103DB000704790F0000F0CF0004C08BF49024CEA2D
:103DC000502040EA51207F3AC2BFD2F1FF0340EABF
:103DD000C250704740F400004FF00003013A5DDC30
:103DE00012F1190FDCBF00F000407047C2F1000271
:103DF000410021FA02F1C2F1200200FA02FC5FEA5E
:103E0000310040F1000053EA4C0308BF20EADC70A7
:103E1000704792F0000F00F0004C02BF400010F419
:103E2000000F013AF9D040EA0C0093F0000F01F0C6
:103E3000004C02BF490011F4000F013BF9D041EAE8
:103E40000C018FE70CEAD15392EA0C0F18BF93EAEA
:103E50000C0F0AD030F0004C18BF31F0004CD8D114
:103E600080EA010000F00040704790F0000F17BF9B
:103E700090F0004F084691F0000F91F0004F14D0E1
:103E800092EA0C0F01D142020FD193EA0C0F03D139
:103E90004B0218BF084608D180EA010000F000403C
:103EA00040F0FE4040F40000704740F0FE4040F417
:103EB000400070474FF0FF0C1CEAD0521EBF1CEAB6
:103EC000D15392EA0C0F93EA0C0F69D0A2EB0302D4
:103ED00080EA010C49024FEA402037D04FF080536E
:103EE00043EA111143EA10130CF000408B4238BF33
:103EF0005B0042F17D024FF4000C8B4224BF5B1A41
:103F000040EA0C00B3EB510F24BFA3EB510340EA8E
:103F10005C00B3EB910F24BFA3EB910340EA9C003C
:103F2000B3EBD10F24BFA3EBD10340EADC001B01AC
:103F300018BF5FEA1C1CE0D1FD2A3FF650AF8B4250
:103F400040EBC25008BF20F0010070470CF0004C5D
:103F50004CEA50207F32C2BFD2F1FF0340EAC25088
:103F6000704740F400004FF00003013A37E792F049
:103F7000000F00F0004C02BF400010F4000F013AA7
:103F8000F9D040EA0C0093F0000F01F0004C02BFA2
:103F9000490011F4000F013BF9D041EA0C0195E70B
:103FA0000CEAD15392EA0C0F08D142027FF47DAFA4
:103FB00093EA0C0F7FF470AF084676E793EA0C0F94
:103FC00004D14B023FF44CAF08466EE730F0004C92
:103FD00018BF31F0004CCAD130F000427FF45CAF22
:103FE00031F000437FF43CAF5FE700BF4FF0FF3C90
:103FF00006E000BF4FF0010C02E000BF4FF0010CE3
:104000004DF804CD4FEA40024FEA41037FEA226CAB
:1040100018BF7FEA236C11D001B052EA530C18BFCD
:1040200090EA010F58BFB2EB030088BFC81738BF32
:104030006FEAE17018BF40F0010070477FEA226C20
:1040400002D15FEA402C05D17FEA236CE4D15FEA1C
:10405000412CE1D05DF8040B704700BF8446084650
:104060006146FFE70FB5FFF7C9FF002848BF10F111
:10407000000F0FBD4DF808EDFFF7F4FF0CBF012056
:1040800000205DF808FB00BF4DF808EDFFF7EAFFE0
:1040900034BF012000205DF808FB00BF4DF808ED9B
:1040A000FFF7E0FF94BF012000205DF808FB00BF90
:1040B0004DF808EDFFF7D2FF94BF012000205DF816
:1040C00008FB00BF4DF808EDFFF7C8FF34BF012023
:1040D00000205DF808FB00BF42000ED2B2F1FE4F97
:1040E0000BD34FF09E03B3EB126209D44FEA0023C7
:1040F00043F0004323FA02F070474FF0000070478E
:1041000012F1610F01D1420202D14FF0FF3070472E
:104110004FF00000704700BF00F050B800F0ACB89E
:1041200000F000B838B50546002943D051F8043CEA
:104130000C1F002BB8BFE418FDF723F91E4A1368C3
:10414000104633B9636014602846BDE83840FDF777
:104150001CB9A3420BD921686218934201BF1A68A7
:104160005B685218226063600460EDE713465A688A
:104170000AB1A242FAD919685818A0420BD1206896
:104180000144581882421960DED110685268014417
:1041900019605A60D8E702D90C232B60D4E7206855
:1041A00021188A4201BF11685268091821606260B3
:1041B0005C60C9E738BD00BFAC07002070B5CD1CFE
:1041C00025F0030508350C2D38BF0C25002D0646BB
:1041D00001DBA94203D90C233360002070BDFDF739
:1041E000D0F8234A1468214691B9224C23681BB9A0
:1041F000304600F067F820602946304600F062F84B
:10420000431C26D10C2330463360FDF7BEF8E4E7AB
:104210000B685B1B1AD40B2B0FD90B60CC18CD503D
:104220003046FDF7B2F804F10B00231D20F0070023
:10423000C31A1BD05A42E25070BD8C420BBF636858
:104240004B681360636018BF0C46E9E70C46496889
:10425000CAE7C41C24F00304A04205D0211A30464A
:1042600000F030F80130CDD02560D9E770BD00BF37
:10427000AC070020B0070020F8B5074614460E46EC
:1042800021B91146BDE8F840FFF746BF22B9FFF754
:1042900047FF25462846F8BD00F024F884420FD990
:1042A00021463846FFF738FF05460028F2D0314650
:1042B0002246FFF77DF831463846FFF731FFE9E740
:1042C0003546E7E738B50023054C05460846236028
:1042D000FDF71AF8431C02D1236803B12B6038BDE7
:1042E0004008002051F8040C0028A0F10400BCBFD5
:1042F0000B58C01870470000F8B500BFF8BC08BCE8
:104300009E467047F8B500BFF8BC08BC9E46704793
:10431000ED010008F1010008F9010008433A2F55AA
:10432000736572732F4775737461766F2F446F6373
:10433000756D656E74732F436D70332F4D42454418
:104340004743435F5653432F6D6265642F54415278
:104350004745545F4E55434C454F5F4631303352CD
:10436000422F5441524745545F53544D2F67706953
:104370006F5F6F626A6563742E68006F626A2D3EBC
:1043800070696E20213D202850696E4E616D65294F
:104390004E430000030000000044004010000000F5
:1043A0000A00000000380140100000001700000063
:1043B00000380140900100001B0000000048004050
:1043C000100000002B000000004800409002000098
:1043D000FFFF0000FFFFFFFF0000000001000000E2
:1043E0000000004013100000020000000000004028
:1043F000131800000300000000000040132000001C
:104400000600000000040040130800000700000040
:10441000000400401310000008000000002C0140C0
:104420001308000009000000002C014013100000D8
:104430000A000000002C0140131800000B000000CF
:10444000002C0140132000000F000000000000407D
:10445000130C0000100000000004004013180000BE
:1044600011000000000400401320000013000000B1
:10447000000000401314000014000000000400407D
:10448000930B00001500000000040040931300008F
:104490001A00000000000040131C00001B00000078
:1044A00000000040132400001D000000002C01400B
:1044B000130801001E000000002C01401310010031
:1044C0001F000000002C014013180100260000000E
:1044D00000040040930C000027000000000400408E
:1044E000931400002800000000040040931C00000A
:1044F000290000000004004093240000FFFF00009A
:10450000FFFFFFFF00000000020000000044004029
:1045100013000000090000000038014013000000F3
:104520001600000000380140930100001A0000004E
:1045300000480040130000002A000000004800402E
:1045400093020000FFFF0000FFFFFFFF00000000DC
:10455000433A5C4A656E6B696E735C776F726B731E
:10456000706163655C6D6265642D322D6275696C86
:10457000642D6C6962726172795C746172676574D2
:10458000735C5441524745545F53544D5C677069A6
:104590006F5F6170692E630050696E6D6170206598
:1045A00072726F723A2077726F6E6720706F7274DA
:1045B000206E756D6265722E00433A5C4A656E6BC3
:1045C000696E735C776F726B73706163655C6D624B
:1045D00065642D322D6275696C642D6C696272613F
:1045E00072795C746172676574735C5441524745BB
:1045F000545F53544D5C5441524745545F53544D9E
:10460000333246315C70696E6D61702E630000005C
:104610000000000001000000110000000200000086
:104620001200000003000000000011100000211023
:1046300000003110000012100000221000003210A3
:104640000000001043616E6E6F7420696E697469BA
:10465000616C697A652050574D0A0050574D3A20D9
:104660006F7574206F662072616E67652070726569
:104670007363616C65720050574D3A206F757420FA
:104680006F662072616E676520706572696F640085
:104690006F626A2D3E70776D20213D202850574D66
:1046A0004E616D65294E4300433A5C4A656E6B6905
:1046B0006E735C776F726B73706163655C6D62655E
:1046C000642D322D6275696C642D6C696272617241
:1046D000795C746172676574735C544152474554E8
:1046E0005F53544D5C5441524745545F53544D33CE
:1046F0003246315C70776D6F75745F6170692E63DF
:104700000066756E6374696F6E20213D202875699F
:104710006E7433325F74294E43004578636570745C
:10472000696F6E0030203D3D20282A6775617264F4
:104730005F6F626A6563742026204358415F475566
:104740004152445F4D41534B2900433A5C4A656EE8
:104750006B696E735C776F726B73706163655C6DB0
:104760006265642D322D6275696C642D6C696272AC
:104770006172795C706C6174666F726D5C72657485
:1047800061726765742E637070004358415F4755CE
:104790004152445F494E49545F494E5F50524F4722
:1047A00052455353203D3D20282A67756172645F4E
:1047B0006F626A6563742026204358415F47554104
:1047C00052445F4D41534B29004F70657261746FC5
:1047D00072206E6577206F7574206F66206D656D31
:1047E0006F72790D0A004F70657261746F72206E7E
:1047F00065775B5D206F7574206F66206D656D6FEA
:1048000072790D0A005F707472203D3D202854209B
:104810002A29265F6461746100433A2F4A656E6BF2
:10482000696E732F776F726B73706163652F6D6242
:1048300065642D322D6275696C642D6C69627261DC
:1048400072792F4255494C442F6D6265642F706C0C
:104850006174666F726D2F53696E676C65746F6EED
:104860005074722E68003A25700043616E6E6F744A
:1048700020696E697469616C697A6520554152548A
:104880000A006F626A5F732D3E7561727420213D6C
:104890002028554152544E616D65294E4300433ADC
:1048A0005C4A656E6B696E735C776F726B73706177
:1048B00063655C6D6265642D322D6275696C642D73
:1048C0006C6962726172795C746172676574735C41
:1048D0005441524745545F53544D5C5441524745EF
:1048E000545F53544D333246315C73657269616C69
:1048F0005F6170692E63006F626A00747820213DE9
:104900002028766F69642A29300074785F7769649B
:104910007468203D3D203800727820213D202876A3
:104920006F69642A29300072785F7769647468203F
:104930003D3D203800756172745F72747320213DB3
:104940002028554152544E616D65294E43007561D2
:1049500072745F63747320213D2028554152544E78
:10496000616D65294E430002030405060708090A24
:104970000B0C0D0E0F1010010200000000000000D3
:1049800000010203040607080900000000010203F9
:104990000400000000000000000000000000000013
:1049A000A9280008CD280008A5280008A728000885
:1049B000433A2F4A656E6B696E732F776F726B7314
:1049C000706163652F6D6265642D322D6275696C4F
:1049D000642D6C6962726172792F4255494C442F83
:1049E0006D6265642F5441524745545F4E55434CA8
:1049F000454F5F4631303352422F54415247455460
:104A00005F53544D2F6770696F5F6F626A6563749F
:104A10002E6800696E646578203E3D203020262691
:104A200020696E646578203C3D20313600433A5C55
:104A30004A656E6B696E735C776F726B73706163DE
:104A4000655C6D6265642D322D6275696C642D6CD8
:104A50006962726172795C647269766572735C42D4
:104A60007573496E2E637070005F70696E5B696E5E
:104A70006465785D00000000000000000000000098
:104A8000112A0008132A000855060008C10700086B
:104A90005F6F707300433A2F4A656E6B696E732FB8
:104AA000776F726B73706163652F6D6265642D3211
:104AB0002D6275696C642D6C6962726172792F4226
:104AC00055494C442F6D6265642F706C6174666F3C
:104AD000726D2F43616C6C6261636B2E6800000025
:104AE00000000000000000006B2A00086D2A00088A
:104AF0000906000841060008636F756C64206E6F3C
:104B0000742070696E6F75740070696E6D617020CD
:104B10006D69732D6D617463680070696E6D61708D
:104B2000206E6F7420666F756E6420666F722070E1
:104B300065726970686572616C0070696E6D617034
:104B4000206E6F7420666F756E6420666F722066CB
:104B5000756E6374696F6E009D270008C127000899
:104B6000712800088928000809280008584B000807
:104B70009C0700206D6265642061737365727461C7
:104B800074696F6E206661696C65643A2025732CC8
:104B90002066696C653A2025732C206C696E65204F
:104BA0002564200A00696E746572727570745F65A1
:104BB0006E61626C655F636F756E746572203C2018
:104BC00055494E5433325F4D415800433A5C4A6573
:104BD0006E6B696E735C776F726B73706163655C2B
:104BE0006D6265642D322D6275696C642D6C69622D
:104BF000726172795C706C6174666F726D5C6D620B
:104C000065645F637269746963616C2E6300696EC9
:104C100074657272757074735F64697361626C65D8
:104C20006400000000000000000000000000000020
:104C30000000000000000000000000000000000074
:104C40000000000000000000000000000000000064
:104C50000000000000000000000000000000000054
:104C60000000000000000000000000000000000044
:104C70000000000000000000000000000000000034
:104C800000000000FC000020232D302B2000686C69
:104C90004C0065666745464700303132333435365F
:104CA0003738394142434445460030313233343598
:104CB00036373839616263646566000000000000C1
:084CC000B8B4FF7F0100000001
:104CC800000000004408002000A24A04FC00002064
:104CD80000000000444C0008644C0008244C000804
:104CE80000000000000000000000000000000000BC
:104CF80000000000000000000000000000000000AC
:104D0800000000000000000000000000000000009B
:104D1800000000000000000000000000000000008B
:104D2800000000000000000000000000000000007B
:104D380031010008D50700080D0100080000000037
:040000050800176177
:00000001FF
